:100000000C9424010C9441010C9441010C94410185
:100010000C9441010C9441010C9441010C94410158
:100020000C9441010C9441010C9441010C94D103B6
:100030000C9441010C9441010C9441010C94410138
:100040000C9441010C9441010C9441010C94410128
:100050000C9441010C9441010C9441010C94410118
:100060000C9441010C944101000000000000005F6D
:1000700000000007000700147F147F14242A7F2A41
:10008000122313086462364955225000050300000C
:10009000001C2241000041221C0014083E081408E4
:1000A000083E0808005030000008080808080060F2
:1000B00060000020100804023E5149453E00427F86
:1000C000400042615149462141454B311814127F8D
:1000D0001027454545393C4A494930017109050316
:1000E0003649494936064949291E0036360000007E
:1000F0005636000008142241001414141414004150
:100100002214080201510906324979413E7E11113B
:10011000117E7F494949363E414141227F4141227A
:100120001C7F494949417F090909013E4149497AF2
:100130007F0808087F00417F41002040413F017F48
:10014000081422417F404040407F020C027F7F0420
:1001500008107F3E4141413E7F090909063E415159
:10016000215E7F09192946464949493101017F012C
:10017000013F4040403F1F2040201F3F4038403F4C
:100180006314081463070870080761514945430068
:100190007F41410002040810200041417F00040219
:1001A0000102044040404040000102040020545439
:1001B00054787F48444438384444442038444448C0
:1001C0007F3854545418087E0901020C5252523E92
:1001D0007F0804047800447D40002040443D007FB7
:1001E0001028440000417F40007C041804787C08FB
:1001F00004047838444444387C1414140808141453
:10020000187C7C080404084854545420043F44409B
:10021000203C4040207C1C2040201C3C4030403C86
:1002200044281028440C5050503C4464544C440022
:100230000836410000007F00000041360800100829
:10024000081008000000000011241FBECFEFD8E006
:10025000DEBFCDBF11E0A0E0B1E0E4E1F5E102C016
:1002600005900D92A831B107D9F723E0A8E1B1E0DC
:1002700001C01D92A635B207E1F70E94B8060C94A2
:10028000880A0C9400009F92AF92BF92CF92DF92A7
:10029000EF92FF920F931F93CF93DF93CDB7DEB70B
:1002A0006C01AA88BB88EC88FD88C857DF4F08819D
:1002B0001981C858D0400E943D0468898E850E94EB
:1002C000320562E082E00E9477048E899F8901975F
:1002D00009F067C06E2D8A2D0E94320562E083E02E
:1002E0000E9477042DE0E216F1047CF089E1E81623
:1002F000F10474F095E2E916F1046CF0E1E3EE1616
:10030000F10464F483E090E00BC080E090E008C06A
:1003100081E090E005C082E090E002C08FEF9FEFA7
:10032000F4E4AF16B10441F028E3A216B10439F4A5
:10033000EE24E394F12C06C0E12CF12C03C0EE2452
:10034000EA94FE2C9E01225F3F4F40E050E04017B0
:1003500051073CF5F90164897589E616F706E1F461
:100360006689778986179707B9F401501109B90191
:100370005A01A016B10684F4FFEFAF1ABF0AEEE0EF
:100380009E2EFB017896DB011A9601900D929A94AD
:10039000E1F7625F7F4FEDCF4F5F5F4F225F3F4FCF
:1003A000D6CFCE010E967C01A12CB12CA016B106A1
:1003B00084F4F701648582850E94320562E084E05E
:1003C0000E947704FFEFAF1ABF0A2EE0E20EF11C85
:1003D000EDCF0E943705C857DF4F19830883C858EF
:1003E000D0408CE8FE013E96D60101900D928A9590
:1003F000E1F7C601DF91CF911F910F91FF90EF9030
:10040000DF90CF90BF90AF909F9008954F925F92F2
:100410006F927F928F929F92AF92BF92CF92DF9214
:10042000EF92FF920F931F93CF93DF93CDB7DEB779
:100430005C01C357DF4FC880D980CD58D04080E0E1
:1004400090E00E94A506CB010E94110A28E0C21686
:10045000D1040CF08EC00E940C0A62E070E00E9491
:10046000D3078C0124EF20037001219FF00C11248D
:1004700034E4E30EF11C0E940C0A64E070E00E9478
:10048000D3072CE0289FA001299F500D112420E0C4
:1004900030E06EE0462E72E0672E712CE4E08E2E86
:1004A000912CFCE05F2E2C153D059CF5429EF00141
:1004B000439EF00D112463E170E06C0F7D1FE60F89
:1004C000F71F648575854617570701F562857385A3
:1004D0006E157F05D9F40E940C0AB3010E94D30760
:1004E0008C0174EF70037001719FF00C112484E48F
:1004F000E80EF11C0E940C0AB4010E94D307589E1A
:10050000A001599E500D112420E030E02F5F3F4F95
:10051000CACF2EE02C9DF0012D9DF00D11243A96AE
:1005200023E130E02C0F3D1FE20FF31FF182E08248
:1005300053834283118610861387028795878487A9
:10054000F801EE0FFF1FEE0FFF1FE80FF91FFE96D9
:10055000EE0FFF1FE20FF31F81E090E09183808395
:100560003FEFC31AD30AC357DF4FD982C882CD5891
:10057000D0408CE8FE017396D50101900D928A95CA
:10058000E1F7C501DF91CF911F910F91FF90EF909F
:10059000DF90CF90BF90AF909F908F907F906F90A3
:1005A0005F904F900895EF92FF920F931F93CF9318
:1005B000DF93CDB7DEB7CC58D1090FB6F894DEBFC4
:1005C0000FBECDBF7C016DB77EB76C5871090FB6F9
:1005D000F8947EBF0FBE6DBFADB7BEB711968CE865
:1005E000FE01EB56FF4F01900D928A95E1F7CE0187
:1005F0008B569F4F0E940602C956DF4F4881598192
:10060000C759D0400FB6F894DEBF0FBECDBF00E192
:1006100010E088E090E021E030E0C756DF4F99839A
:100620008883C959D040C556DF4F59834883CB5979
:10063000D040C356DF4F39832883CD59D0406DB7A2
:100640007EB76C5871090FB6F8947EBF0FBE6DBFB0
:10065000ADB7BEB711968CE8FE01EB56FF4F019087
:100660000D928A95E1F7CE0101960E9443018CE834
:10067000FE013196DE01AB56BF4F01900D928A9577
:10068000E1F7C756DF4F88819981C959D040C556D7
:10069000DF4F48815981CB59D040C356DF4F288165
:1006A0003981CD59D0407FEFE6E761E07150E040FD
:1006B0006040E1F700C000000496015011090FB638
:1006C000F894DEBF0FBECDBF09F0A7CFC756DF4FEE
:1006D00099838883C959D040C356DF4F1982188245
:1006E000CD59D0408DB79EB78C5891090FB6F8946C
:1006F0009EBF0FBE8DBFADB7BEB711968CE8FE0191
:10070000EB56FF4F01900D928A95E1F7CE010196CD
:100710000E9443018CE8FE013196DE01AB56BF4FCB
:1007200001900D928A95E1F78CE8FE01EB56FF4FA0
:10073000D70101900D928A95E1F70FB6F894DEBFCC
:100740000FBECDBFC701C457DF4F0FB6F894DEBF51
:100750000FBECDBFDF91CF911F910F91FF90EF9012
:1007600008950F931F93CF93DF93EC018B010E94A9
:100770003D04602F8C2F0E94320562E082E00E94CF
:1007800077040E9437052FEF81EE94E021508040DE
:100790009040E1F700C00000DF91CF911F910F91D1
:1007A00008951F920F920FB60F9211240F900FBE53
:1007B0000F901F9018952998662311F02B9A01C06D
:1007C0002B9827E030E090E0AC01022E02C0559556
:1007D00047950A94E2F740FF02C02C9A01C02C987A
:1007E0002D9A2D982150310978F7299A089560E0C3
:1007F0000C94DB03CF93DF93219A229A239A249AB5
:10080000259A2A9A299A8FE39CE90197F1F700C06B
:1008100000002A989FEF2AE683E091502040804014
:10082000E1F700C000002A9A299881E20E94F703AC
:1008300083E10E94F70386E00E94F70382EC0E94A6
:10084000F70380E20E94F70389E00E94F70380E843
:100850000E94F70380E40E94F703C8EFD1E061E053
:1008600080E00E94DB032197D1F788E00E94F70324
:100870008CE0DF91CF910C94F70380E80E94F7039E
:1008800080E40E94F703109210031092110388EF86
:1008900091E0E8E1F1E0DF019C011D922150304040
:1008A000E1F70895811102C084E201C080E20C9456
:1008B000F703962F969596959695E82FF0E084E5A8
:1008C000989FE00DF11D1124E85EFE4F677081E0F6
:1008D00090E001C0880F6A95EAF7442319F09081EF
:1008E000892B03C0809590818923808308958F92FE
:1008F0009F92AF92BF92DF92EF92FF920F931F935E
:10090000CF93DF9300D000D01F92CDB7DEB7F62E85
:10091000282F082E000C330B80326CF02052310946
:1009200085E0829FB001839F700D112468597F4F2D
:1009300045E050E00EC0220F331FF901EE5EFC4F80
:10094000008111810115110559F445E050E068E678
:1009500070E0CE0101960E941C0A8E010F5F1F4FAE
:1009600085E0F89E5001112497E0F99E4001112482
:10097000D12C8D2D90E08A159B0544F5E12C8E2D10
:1009800090E08815990504F58D2D6F2D0E94C707FD
:10099000F801E80FF11D208130E08E2D0E94C7077D
:1009A00002C0359527958A95E2F7609111038091F1
:1009B00010036E0D20FF02C041E001C040E08D0D2C
:1009C0000E945904E394DBCFD394D3CF80911003DA
:1009D00091E0980F8F2D880F880F8F0D890F843528
:1009E00018F4809310030BC0109210038091110330
:1009F0008F5F97E0F99E800D112480931103809101
:100A00001103803320F010921003109211030F9005
:100A10000F900F900F900F90DF91CF911F910F913A
:100A2000FF90EF90DF90BF90AF909F908F900895D0
:100A300080323CF4E82FEE0FFF0BEE5EFC4F71832B
:100A4000608308951F93CF93DF93162FEC01899154
:100A5000882321F0612F0E947704F9CFDF91CF9195
:100A60001F91089580931003609311030895CF930D
:100A7000DF9380E80E94F70380E40E94F703C8E157
:100A8000D1E061E089910E94DB0383E0C031D807A7
:100A9000C1F7DF91CF9108954F925F926F927F924D
:100AA0008F929F92AF92BF92CF92DF92EF92FF927E
:100AB000CF93DF93CDB7DEB72E970FB6F894DEBF96
:100AC0000FBECDBF8D876987F22E642F70E0681B43
:100AD0007109072E000C880B990B0E940B094B0122
:100AE0005C016F2D70E02985621B7109072E000CD7
:100AF000880B990B0E940B096B017C0124013501C5
:100B0000E89477F8DC01CB01BF7789839A83AB83C4
:100B1000BC839C01AD01C301B2010E94970987FF0C
:100B200004C049805A806B807C80A3019201C5017A
:100B3000B4010E94680869837A838B839C83A30134
:100B40009201C701B6010E9468086D837E838F837E
:100B50009887AD856A2F70E080E090E00E940909D7
:100B60006B017C01B9856B2F70E080E090E00E9402
:100B700009094B015C0121E030E03E872D87AD85FE
:100B8000BE85BD01BB0F880B990B0E940B099B0111
:100B9000AC01C301B2010E94970987FD2CC0C501B9
:100BA000B4010E94DA0869877A878B879C87C7011E
:100BB000B6010E94DA08DC01CB0141E069850E94A0
:100BC000590429813A814B815C81C701B6010E9499
:100BD000FC076B017C012D813E814F815885C50149
:100BE000B4010E94FC074B015C018D859E85019636
:100BF0009E878D87C4CF2E960FB6F894DEBF0FBEAA
:100C0000CDBFDF91CF91FF90EF90DF90CF90BF905D
:100C1000AF909F908F907F906F905F904F900895CE
:100C20000F931F93CF93DF93C82F162F042FD22F2C
:100C3000262F0E944C052D2F402F612F802F0E94C0
:100C40004C052D2F4C2F6D2F802F0E944C05212FEE
:100C50004C2F6D2F8C2FDF91CF911F910F910C9402
:100C60004C057F928F929F92AF92BF92CF92DF926C
:100C7000EF92FF920F931F93CF93DF93D82EC62E40
:100C8000C42FD0E0E12CF12C00E010E041E0AC2CCE
:100C9000A00E6A2DBC2EBD0C8B2D0E94590441E084
:100CA0008C2E8C0C682D9D2C900E892D0E94590441
:100CB00041E0682D7D2C701A872D0E94590441E077
:100CC0006A2D8D2C8C1A882D0E94590441E0AC2C81
:100CD000A01A6A2D882D0E94590441E08C2C8C1A90
:100CE000682D872D0E94590441E0682D892D0E94AE
:100CF000590441E06A2D8B2D0E9459041E141F04D3
:100D00005CF00F5F1F4FC801880F991F0196E80E16
:100D1000F91E1E141F043CF42197CE01880F991F61
:100D20000196E81AF90AC017D1070CF0AFCFDF918E
:100D3000CF911F910F91FF90EF90DF90CF90BF90D8
:100D4000AF909F908F907F900895FC010FB6F8941C
:100D50006091520370915303809154039091550315
:100D60000FBE309721F0608371838283938308954F
:100D7000CF93DF93CDB7DEB7C752D1400FB6F8940B
:100D8000DEBF0FBECDBF0E94FA030E943D0460E0AB
:100D900071E081E00E94180556985798209885E0E8
:100DA000E9E0F1E0DE01A956BF4F01900D928A956E
:100DB000E1F7BE0169567F4F82E00E94180585E089
:100DC000EEE0F1E0DE01AE56BF4F01900D928A9544
:100DD000E1F7BE016E567F4F83E00E94180585E063
:100DE000E3E1F1E0DE01A357BF4F01900D928A9538
:100DF000E1F7BE0163577F4F84E00E941805F89425
:100E00001092800010928100109285001092840050
:100E100010928900109288008091810088608093F0
:100E200081008091810085608093810080916F00B6
:100E3000826080936F00419A78941A8219821E8290
:100E40001D8218861F821A861986ED961FAE1EAE69
:100E5000ED9780E090E04F9B30C08032910511F01B
:100E6000049602C080E290E09C838B832DB73EB74E
:100E70002C5831090FB6F8943EBF0FBE2DBFADB749
:100E8000BEB711968CE8FE01319601900D928A95BD
:100E9000E1F7CE0101960E9443018B819C813FEFD7
:100EA00041EE24E0315040402040E1F700C0000016
:100EB0000FB6F894DEBF0FBECDBF4E9B3AC0009771
:100EC00011F0049702C080E090E09C838B838DB783
:100ED0009EB78C5891090FB6F8949EBF0FBE8DBF78
:100EE000ADB7BEB711968CE8FE01319601900D9218
:100EF0008A95E1F7CE0184569F4F0E9443018CE80A
:100F0000FE01E456FF4FDE01119601900D928A9585
:100F1000E1F78B819C812FEF31EE44E0215030408E
:100F20004040E1F700C000000FB6F894DEBF0FBEEE
:100F3000CDBF189B90CF9C838B838DB79EB78C5869
:100F400091090FB6F8949EBF0FBE8DBFADB7BEB767
:100F500011968CE8FE01319601900D928A95E1F789
:100F6000CE0184569F4F0E94D3028CE8FE01E456C6
:100F7000FF4FDE01119601900D928A95E1F78B816A
:100F80009C810FB6F894DEBF0FBECDBF64CF991B16
:100F900079E004C0991F961708F0961B881F7A9570
:100FA000C9F78095089597FB072E16F4009407D093
:100FB00077FD09D00E94E70707FC05D03EF4909525
:100FC00081959F4F0895709561957F4F0895AA1B55
:100FD000BB1B51E107C0AA1FBB1FA617B70710F024
:100FE000A61BB70B881F991F5A95A9F78095909556
:100FF000BC01CD0108955058BB27AA270E941308B1
:101000000C945D090E944F0938F00E94560920F0A7
:1010100039F49F3F19F426F40C944C090EF4E09532
:10102000E7FB0C944609E92F0E946E0958F3BA17A2
:10103000620773078407950720F079F4A6F50C94EE
:1010400090090EF4E0950B2EBA2FA02D0B01B901DB
:1010500090010C01CA01A0011124FF27591B99F02E
:10106000593F50F4503E68F11A16F040A22F232F3A
:10107000342F4427585FF3CF469537952795A7958A
:10108000F0405395C9F77EF41F16BA0B620B730B31
:10109000840BBAF09150A1F0FF0FBB1F661F771FA2
:1010A000881FC2F70EC0BA0F621F731F841F48F457
:1010B000879577956795B795F7959E3F08F0B0CFE0
:1010C0009395880F08F09927EE0F979587950895C7
:1010D0000E947C080C945D090E94560958F00E94F9
:1010E0004F0940F029F45F3F29F00C944609511153
:1010F0000C9491090C944C090E946E0968F3992391
:10110000B1F3552391F3951B550BBB27AA27621703
:101110007307840738F09F5F5F4F220F331F441F10
:10112000AA1FA9F335D00E2E3AF0E0E832D0915044
:101130005040E695001CCAF72BD0FE2F29D0660F31
:10114000771F881FBB1F261737074807AB07B0E874
:1011500009F0BB0B802DBF01FF2793585F4F3AF07A
:101160009E3F510578F00C9446090C9491095F3F1D
:10117000E4F3983ED4F3869577956795B795F79500
:101180009F5FC9F7880F911D9695879597F90895E8
:10119000E1E0660F771F881FBB1F62177307840784
:1011A000BA0720F0621B730B840BBA0BEE1F88F793
:1011B000E09508950E94760988F09F5798F0B92F1E
:1011C0009927B751B0F0E1F0660F771F881F991F7C
:1011D0001AF0BA95C9F714C0B13091F00E94900985
:1011E000B1E008950C949009672F782F8827B85F95
:1011F00039F0B93FCCF3869577956795B395D9F7D4
:101200003EF490958095709561957F4F8F4F9F4FDD
:101210000895E89409C097FB3EF4909580957095E9
:1012200061957F4F8F4F9F4F9923A9F0F92F96E932
:10123000BB279395F695879577956795B795F111A7
:10124000F8CFFAF4BB0F11F460FF1BC06F5F7F4F44
:101250008F4F9F4F16C0882311F096E911C0772356
:1012600021F09EE8872F762F05C0662371F096E85F
:10127000862F70E060E02AF09A95660F771F881F2E
:10128000DAF7880F9695879597F9089597F99F67EC
:1012900080E870E060E008959FEF80EC08950024FE
:1012A0000A941616170618060906089500240A94CB
:1012B00012161306140605060895092E0394000C51
:1012C00011F4882352F0BB0F40F4BF2B11F460FFE0
:1012D00004C06F5F7F4F8F4F9F4F089557FD905809
:1012E000440F551F59F05F3F71F04795880F97FBEA
:1012F000991F61F09F3F79F08795089512161306A4
:101300001406551FF2CF4695F1DF08C016161706D2
:101310001806991FF1CF8695710561050894089507
:10132000E894BB2766277727CB0197F908950E9499
:101330009C0908F48FEF0895990F0008550FAA0B28
:10134000E0E8FEEF16161706E807F907C0F01216D8
:101350001306E407F50798F0621B730B840B950BDB
:1013600039F40A2661F0232B242B252B21F4089530
:101370000A2609F4A140A6958FEF811D811D0895CD
:101380008F929F92AF92BF92CF92DF92EF92FF9295
:10139000CF93DF93EC01688179818A819B8161150C
:1013A00071058105910521F464E279ED8BE597E003
:1013B0002DE133EF41E050E00E94250A49015A0136
:1013C0009B01AC01A7EAB1E40E94440A6B017C01D5
:1013D000ACEEB4EFA50194010E94520ADC01CB01EE
:1013E0008C0D9D1DAE1DBF1DB7FF03C00197A10948
:1013F000B04888839983AA83BB839F77DF91CF917D
:10140000FF90EF90DF90CF90BF90AF909F908F9024
:1014100008950E94C009089585E091E00E94C009E6
:101420000895A0E0B0E08093050190930601A09399
:101430000701B09308010895FB01DC0102C005908B
:101440000D9241505040D8F70895052E97FB1EF499
:1014500000940E943C0A57FD07D00E94570A07FCDF
:1014600003D04EF40C943C0A50954095309521954C
:101470003F4F4F4F5F4F08959095809570956195C0
:101480007F4F8F4F9F4F08950E94790AA59F900D1F
:10149000B49F900DA49F800D911D11240895B7FF56
:1014A0000C94440A0E94440A821B930B0895A1E203
:1014B0001A2EAA1BBB1BFD010DC0AA1FBB1FEE1FCE
:1014C000FF1FA217B307E407F50720F0A21BB30B19
:1014D000E40BF50B661F771F881F991F1A9469F795
:1014E00060957095809590959B01AC01BD01CF01F1
:1014F0000895A29FB001B39FC001A39F700D811DED
:101500001124911DB29F700D811D1124911D08950C
:04151000F894FFCF7D
:101514001024E02410010000005D77140808080876
:0815240008080811150A0E1158
:00000001FF
