:100000000C9424010C9441010C9441010C94410185
:100010000C9441010C9441010C9441010C94410158
:100020000C9441010C9441010C9441010C94100476
:100030000C9441010C9441010C9441010C94410138
:100040000C9441010C9441010C9441010C94410128
:100050000C9441010C9441010C9441010C94410118
:100060000C9441010C944101000000000000005F6D
:1000700000000007000700147F147F14242A7F2A41
:10008000122313086462364955225000050300000C
:10009000001C2241000041221C0014083E081408E4
:1000A000083E0808005030000008080808080060F2
:1000B00060000020100804023E5149453E00427F86
:1000C000400042615149462141454B311814127F8D
:1000D0001027454545393C4A494930017109050316
:1000E0003649494936064949291E0036360000007E
:1000F0005636000008142241001414141414004150
:100100002214080201510906324979413E7E11113B
:10011000117E7F494949363E414141227F4141227A
:100120001C7F494949417F090909013E4149497AF2
:100130007F0808087F00417F41002040413F017F48
:10014000081422417F404040407F020C027F7F0420
:1001500008107F3E4141413E7F090909063E415159
:10016000215E7F09192946464949493101017F012C
:10017000013F4040403F1F2040201F3F4038403F4C
:100180006314081463070870080761514945430068
:100190007F41410002040810200041417F00040219
:1001A0000102044040404040000102040020545439
:1001B00054787F48444438384444442038444448C0
:1001C0007F3854545418087E0901020C5252523E92
:1001D0007F0804047800447D40002040443D007FB7
:1001E0001028440000417F40007C041804787C08FB
:1001F00004047838444444387C1414140808141453
:10020000187C7C080404084854545420043F44409B
:10021000203C4040207C1C2040201C3C4030403C86
:1002200044281028440C5050503C4464544C440022
:100230000836410000007F00000041360800100829
:10024000081008000000000011241FBECFEFD8E006
:10025000DEBFCDBF11E0A0E0B1E0ECEFFCE102C0F9
:1002600005900D92A831B107D9F723E0A8E1B1E0DC
:1002700001C01D92AA36B207E1F70E9425070C942F
:100280007C0E0C9400004F925F926F927F928F923F
:100290009F92AF92BF92CF92DF92EF92FF920F9315
:1002A0001F93CF93DF93CDB7DEB75C018F88988C17
:1002B000E98CFA8CCB8CDC8CC357DF4F0881198119
:1002C000CD58D040C156DF4F68807980CF59D0409B
:1002D000CF55DF4F48805980C15AD0400E94AA04B0
:1002E0006D898B890E949F0562E082E00E94E40490
:1002F00021E0C216D10409F081C06E2D882D0E9424
:100300009F0562E083E00E94E40488E0E816F104BF
:100310007CF094E1E916F10474F0A0E2EA16F1042D
:100320006CF0B0E2EB16F10461F483E090E00BC0F6
:1003300080E090E008C081E090E005C082E090E0BD
:1003400002C08FEF9FEFE4E48E16910439F0F8E3DA
:100350008F16910431F461E070E005C060E070E058
:1003600002C06FEF7FEF9E012D5E3F4F40E050E0F7
:10037000401751070CF042C0D9015496ED91FC9101
:1003800055976E177F07A9F55696ED91FC915797F3
:100390008E179F0771F50150110979016A01C01686
:1003A000D1068CF4BFEFCB1ADB0AEEE09E2EF701EC
:1003B0007896D7011A9601900D929A94E1F7EEE0A3
:1003C000EE0EF11CECCF1092200110922101109240
:1003D00022011092230110922801109229011092FB
:1003E0002A0110922B01412C512C612C712CC12C13
:1003F000D12C4F5F5F4F225F3F4FBACFCD55DF4FBC
:1004000088819981C35AD040019731F4CE01439637
:100410007C01812C912C06C0DE0153967D01812C3C
:10042000912C13C02EE0E20EF11C80169106A4F769
:10043000F701628180810E949F0562E083E00E9453
:10044000E404FFEF8F1A9F0AEDCF801691069CF40B
:10045000D7011C966C911C971A968C910E949F054F
:1004600062E084E00E94E404BFEF8B1A9B0AEEE096
:10047000EE0EF11CEACF0E94A405DC8ECB8EC35792
:10048000DF4F19830883CD58D040C156DF4F7982A2
:100490006882CF59D040CF55DF4F59824882C15A28
:1004A000D04082E9FE017396D50101900D928A95A4
:1004B000E1F7C501DF91CF911F910F91FF90EF9070
:1004C000DF90CF90BF90AF909F908F907F906F9074
:1004D0005F904F9008954F925F926F927F928F92AC
:1004E0009F92AF92BF92CF92DF92EF92FF920F93C3
:1004F0001F93CF93DF93CDB7DEB7C259D1090FB6A3
:10050000F894DEBF0FBECDBF5C01C15EDE4FC88078
:10051000D980CF51D14080E090E00E941207CB01FA
:100520000E94460E28E0C216D10454F082E9FE0172
:10053000EB55FF4FD50101900D928A95E1F7BEC0B2
:100540000E94410E62E070E00E94C70B8C0124EF14
:1005500020037001219FF00C112434E4E30EF11C00
:100560000E94410E64E070E00E94C70B2CE0289FBF
:10057000A001299F500D112420E030E06EE0462EAE
:1005800072E0672E712CE4E08E2E912CFCE05F2E41
:100590002C153D059CF5429EF001439EF00D112463
:1005A00065EA70E06C0F7D1FE60FF71F64857585A7
:1005B0004617570701F5628573856E157F05D9F4D7
:1005C0000E94410EB3010E94C70B8C0174EF7003AF
:1005D0007001719FF00C112484E4E80EF11C0E945C
:1005E000410EB4010E94C70B589EA001599E500DA8
:1005F000112420E030E02F5F3F4FCACF2EE02C9D2A
:10060000F0012D9DF00D11243A9625EA30E02C0FD3
:100610003D1FE20FF31FF182E08253834283118674
:1006200010861387028795878487F801EE0FFF1FD6
:10063000EE0FFF1FE80FF91FFE96EE0FFF1FE20FF0
:10064000F31F81E090E0918380833FEFC31AD30AC8
:10065000C15EDE4FD982C882CF51D1406DB77EB71F
:10066000625971090FB6F8947EBF0FBE6DBFADB76A
:10067000BEB7119682E9FE01EB55FF4F01900D9236
:100680008A95E1F7CE0101960E94430182E9FE01BD
:100690003196DE01AB55BF4F01900D928A95E1F77F
:1006A00082E9FE01EB55FF4FD50101900D928A952D
:1006B000E1F70FB6F894DEBF0FBECDBFC501CE5631
:1006C000DF4F0FB6F894DEBF0FBECDBFDF91CF91E5
:1006D0001F910F91FF90EF90DF90CF90BF90AF9060
:1006E0009F908F907F906F905F904F9008950F93A1
:1006F0001F93CF93DF93CDB7DEB78C0189859A85A1
:1007000028E030E03C872B879E878D8781E090E052
:10071000988B8F878DB79EB7825991090FB6F89441
:100720009EBF0FBE8DBFADB7BEB7119682E9FE0169
:10073000379601900D928A95E1F7CE0107960E94B7
:10074000430182E9FE013796D80101900D928A9506
:10075000E1F70FB6F894DEBF0FBECDBFC801DF9141
:10076000CF911F910F910895CF93DF93CDB7DEB74F
:10077000C956DF4F28813981C759D0404EE0429F8A
:10078000F001439FF00D112465E070E06C0F7D1FB8
:10079000E60FF71F61E070E0738B628B2F5F3F4FB6
:1007A000429FD001439FB00D112425E030E02C0F73
:1007B0003D1FA20FB31F22853385285031092D9389
:1007C0003C9324853585318B208B22E9FE013596BB
:1007D000DC0101900D922A95E1F7DF91CF91089508
:1007E0000F931F93CF93DF93EC018B010E94AA0418
:1007F000602F8C2F0E949F0562E082E00E94E4043B
:100800000E94A4052FEF81EE94E02150804090409B
:10081000E1F700C00000DF91CF911F910F91089583
:100820001F920F920FB60F9211248F939F93AF9345
:10083000BF938091280190912901A0912A01B09144
:100840002B010196A11DB11D8093280190932901D0
:10085000A0932A01B0932B0180912401909125014E
:10086000A0912601B09127010196A11DB11D809391
:10087000240190932501A0932601B0932701BF91F5
:10088000AF919F918F910F900FBE0F901F90189571
:100890002998662311F02B9A01C02B9827E030E0AD
:1008A00090E0AC01022E02C0559547950A94E2F7FC
:1008B00040FF02C02C9A01C02C982D9A2D982150EF
:1008C000310978F7299A089560E00C944804CF9391
:1008D000DF93219A229A239A249A259A2A9A299A6E
:1008E0008FE39CE90197F1F700C000002A989FEF81
:1008F0002AE683E0915020408040E1F700C00000EC
:100900002A9A299881E20E94640483E10E94640487
:1009100086E00E94640482EC0E94640480E20E94EB
:10092000640489E00E94640480E80E94640480E416
:100930000E946404C8EFD1E061E080E00E944804B6
:100940002197D1F788E00E9464048CE0DF91CF9179
:100950000C94640480E80E94640480E40E946404AF
:10096000109224031092250388EF91E0ECE2F1E06D
:10097000DF019C011D9221503040E1F70895811163
:1009800002C084E201C080E20C946404962F969524
:1009900096959695E82FF0E084E5989FE00DF11D7F
:1009A0001124E45DFE4F677081E090E001C0880F84
:1009B0006A95EAF7442319F09081892B03C080954A
:1009C00090818923808308958F929F92AF92BF92E6
:1009D000DF92EF92FF920F931F93CF93DF9300D09C
:1009E00000D01F92CDB7DEB7F62E282F082E000CB0
:1009F000330B80326CF02052310985E0829FB001C8
:100A0000839F700D112468597F4F45E050E00EC060
:100A1000220F331FF901EA5DFC4F0081118101159E
:100A2000110559F445E050E068E670E0CE0101960A
:100A30000E94510E8E010F5F1F4F85E0F89E5001FE
:100A4000112497E0F99E40011124D12C8D2D90E0C6
:100A50008A159B0544F5E12C8E2D90E088159905AB
:100A600004F58D2D6F2D0E94BB0BF801E80FF11DD1
:100A7000208130E08E2D0E94BB0B02C0359527955A
:100A80008A95E2F760912503809124036E0D20FF83
:100A900002C041E001C040E08D0D0E94C604E39415
:100AA000DBCFD394D3CF8091240391E0980F8F2D87
:100AB000880F880F8F0D890F843518F480932403D5
:100AC0000BC010922403809125038F5F97E0F99E5D
:100AD000800D11248093250380912503803320F01D
:100AE00010922403109225030F900F900F900F90F7
:100AF0000F90DF91CF911F910F91FF90EF90DF90BA
:100B0000BF90AF909F908F90089580323CF4E82F73
:100B1000EE0FFF0BEA5DFC4F7183608308951F9316
:100B2000CF93DF93162FEC018991882321F0612F59
:100B30000E94E404F9CFDF91CF911F910895809333
:100B40002403609325030895CF93DF9380E80E94E8
:100B5000640480E40E946404CCE2D1E061E0899105
:100B60000E94480483E0C432D807C1F7DF91CF91D7
:100B700008954F925F926F927F928F929F92AF9261
:100B8000BF92CF92DF92EF92FF92CF93DF93CDB7D8
:100B9000DEB72E970FB6F894DEBF0FBECDBF8D87A0
:100BA0006987F22E642F70E0681B7109072E000C14
:100BB000880B990B0E94400D4B015C016F2D70E07A
:100BC0002985621B7109072E000C880B990B0E9466
:100BD000400D6B017C0124013501E89477F8DC01BC
:100BE000CB01BF7789839A83AB83BC839C01AD0122
:100BF000C301B2010E94CC0D87FF04C049805A8016
:100C00006B807C80A3019201C501B4010E949D0C00
:100C100069837A838B839C83A3019201C701B60108
:100C20000E949D0C6D837E838F839887AD856A2F8C
:100C300070E080E090E00E943E0D6B017C01B98580
:100C40006B2F70E080E090E00E943E0D4B015C0154
:100C500021E030E03E872D87AD85BE85BD01BB0F0D
:100C6000880B990B0E94400D9B01AC01C301B2019E
:100C70000E94CC0D87FD2CC0C501B4010E940F0D50
:100C800069877A878B879C87C701B6010E940F0D01
:100C9000DC01CB0141E069850E94C60429813A81CB
:100CA0004B815C81C701B6010E94310C6B017C0154
:100CB0002D813E814F815885C501B4010E94310CC0
:100CC0004B015C018D859E8501969E878D87C4CFE3
:100CD0002E960FB6F894DEBF0FBECDBFDF91CF9139
:100CE000FF90EF90DF90CF90BF90AF909F908F904C
:100CF0007F906F905F904F9008950F931F93CF93C5
:100D0000DF93C82F162F042FD22F262F0E94B9054C
:100D10002D2F402F612F802F0E94B9052D2F4C2F92
:100D20006D2F802F0E94B905212F4C2F6D2F8C2FF6
:100D3000DF91CF911F910F910C94B9057F928F9203
:100D40009F92AF92BF92CF92DF92EF92FF920F935A
:100D50001F93CF93DF93D82EC62EC42FD0E0E12C63
:100D6000F12C00E010E041E0AC2CA00E6A2DBC2E6E
:100D7000BD0C8B2D0E94C60441E08C2E8C0C682D7E
:100D80009D2C900E892D0E94C60441E0682D7D2C7B
:100D9000701A872D0E94C60441E06A2D8D2C8C1A92
:100DA000882D0E94C60441E0AC2CA01A6A2D882D23
:100DB0000E94C60441E08C2C8C1A682D872D0E945D
:100DC000C60441E0682D892D0E94C60441E06A2DC9
:100DD0008B2D0E94C6041E141F045CF00F5F1F4F72
:100DE000C801880F991F0196E80EF91E1E141F04F2
:100DF0003CF42197CE01880F991F0196E81AF90A51
:100E0000C017D1070CF0AFCFDF91CF911F910F9199
:100E1000FF90EF90DF90CF90BF90AF909F908F901A
:100E20007F900895FC010FB6F8946091660370916D
:100E3000670380916803909169030FBE309721F09A
:100E400060837183828393830895CF93DF93CDB7BB
:100E5000DEB7C353D1400FB6F894DEBF0FBECDBF8F
:100E60000E9467040E94AA0460E071E081E00E9491
:100E70008505569857982098389A85E0E9E0F1E082
:100E8000DE01A356BF4F01900D928A95E1F7BE0196
:100E900063567F4F82E00E94850585E0EEE0F1E039
:100EA000DE01A856BF4F01900D928A95E1F7BE0171
:100EB00068567F4F83E00E94850585E0E3E1F1E01D
:100EC000DE01AD56BF4F01900D928A95E1F7BE014C
:100ED0006D567F4F84E00E948505F8941092800043
:100EE0001092810010928500109284001092890067
:100EF00010928800809181008860809381008091A9
:100F0000810085608093810080916F008260809372
:100F10006F00419A78941A82198218861F82109263
:100F200020011092210110922201109223011092AF
:100F30001C0110921D0110921E0110921F01812CA4
:100F4000912C412C512CE12CF12CC12CD12CA12C19
:100F5000B12C612C712C00E010E06091280170919F
:100F6000290180912A0190912B0128EC3FEA40E071
:100F700050E00E94DB0B672B682B692B09F05FC0E8
:100F80001C830B837E826D82BA86A986ED96DFAEC6
:100F9000CEAEED97C357DF4FF982E882CD58D040EF
:100FA000C157DF4F59824882CF58D040CF56DF4FCC
:100FB00099828882C159D0402DB73EB72259310954
:100FC0000FB6F8943EBF0FBE2DBFADB7BEB711969A
:100FD00082E9FE01319601900D928A95E1F7CE01EA
:100FE0008E559F4F0E946B0282E9FE01EE55FF4F26
:100FF000DE01119601900D928A95E1F70B811C811B
:101000006D807E80A984BA84ED96CEACDFACED977E
:10101000C357DF4FE880F980CD58D040C157DF4F2C
:1010200048805980CF58D040CF56DF4F8880998074
:10103000C159D0400FB6F894DEBF0FBECDBF4F9B55
:101040006BC00032110511F00C5F1F4F1C830B8326
:101050007E826D82BA86A986ED96DFAECEAEED9722
:10106000C357DF4FF982E882CD58D040C157DF4FD8
:1010700059824882CF58D040CF56DF4F998288821C
:10108000C159D040ADB7BEB7A259B1090FB6F89457
:10109000BEBF0FBEADBF119682E9FE013196019031
:1010A0000D928A95E1F7CE018E559F4F0E94430124
:1010B00082E9FE01EE55FF4FDE01119601900D927F
:1010C0008A95E1F70B811C816D807E80A984BA84AA
:1010D000ED96CEACDFACED97C357DF4FE880F980DB
:1010E000CD58D040C157DF4F48805980CF58D040AD
:1010F000CF56DF4F88809980C159D040BFEF21EE95
:1011000034E0B15020403040E1F700C000000FB69D
:10111000F894DEBF0FBECDBF4E9B6BC0011511050D
:1011200011F0045011091C830B837E826D82BA86F4
:10113000A986ED96DFAECEAEED97C357DF4FF982AD
:10114000E882CD58D040C157DF4F59824882CF58EE
:10115000D040CF56DF4F99828882C159D040ADB779
:10116000BEB7A259B1090FB6F894BEBF0FBEADBF4E
:10117000119682E9FE01319601900D928A95E1F770
:10118000CE018E559F4F0E94430182E9FE01EE552C
:10119000FF4FDE01119601900D928A95E1F70B81C8
:1011A0001C816D807E80A984BA84ED96CEACDFACC4
:1011B000ED97C357DF4FE880F980CD58D040C15735
:1011C000DF4F48805980CF58D040CF56DF4F8880BE
:1011D0009980C159D040BFEF21EE34E0B15020409A
:1011E0003040E1F700C000000FB6F894DEBF0FBE3C
:1011F000CDBF189B76C0A114B10409F072C01C8346
:101200000B837E826D821A861986ED96DFAECEAE96
:10121000ED97C357DF4FF982E882CD58D040C157D0
:10122000DF4F59824882CF58D040CF56DF4F998246
:101230008882C159D040ADB7BEB7A259B1090FB627
:10124000F894BEBF0FBEADBF119682E9FE01319684
:1012500001900D928A95E1F7CE018E559F4F0E9425
:10126000770382E9FE01EE55FF4FDE0111960190F2
:101270000D928A95E1F70B811C816D807E80A98497
:10128000BA84ED96CEACDFACED97C357DF4FE88064
:10129000F980CD58D040C157DF4F48805980CF5892
:1012A000D040CF56DF4F88809980C159D040BFEFE2
:1012B00021EE34E0B15020403040E1F700C00000A2
:1012C00081E090E0A0E0B0E08093200190932101C4
:1012D000A0932201B09323010FB6F894DEBF0FBE96
:1012E000CDBF8091200190912101A0912201B09168
:1012F0002301181619061A061B06ECF4409A4091B1
:10130000200150912101609122017091230180916F
:10131000280190912901A0912A01B0912B01840FFD
:10132000951FA61FB71F8093200190932101A093C2
:101330002201B0932301409118015091190160914D
:101340001A0170911B018091240190912501A091B7
:101350002601B0912701840F951FA61FB71F809308
:10136000180190931901A0931A01B0931B018031C9
:101370009742A105B1050CF4C4C08114910409F091
:10138000C0C081E090E0812C912C1C830B837E8275
:101390006D82BA86A986ED96DFAECEAEED97C357C5
:1013A000DF4FF982E882CD58D040C157DF4F5982D4
:1013B0004882CF58D040CF56DF4F99838883C15998
:1013C000D0408C149D040CF049C09F928F928DB731
:1013D0009EB7825991090FB6F8949EBF0FBE8DBF7C
:1013E000ADB7BEB7119682E9FE01319601900D921C
:1013F0008A95E1F7CE018E559F4F0E94B40382E992
:10140000FE01EE55FF4FDE01119601900D928A9577
:10141000E1F70B811C816D807E80A984BA84ED96F2
:10142000CEACDFACED97C357DF4FE880F980CD58E5
:10143000D040C157DF4F48805980CF58D040CF5659
:10144000DF4F88819981C159D040AFEF8A1A9A0A3B
:101450000FB6F894DEBF0FBECDBF97CF8DB79EB746
:10146000825991090FB6F8949EBF0FBE8DBFADB7DC
:10147000BEB7119682E9FE01319601900D928A95D0
:10148000E1F7CE018E559F4F0E94430182E9FE0194
:10149000EE55FF4FDE01119601900D928A95E1F70E
:1014A0000B811C816D807E80A984BA84ED96CEACC0
:1014B000DFACED97C357DF4FE880F980CD58D040BF
:1014C000C157DF4F48805980CF58D040CF56DF4FAB
:1014D00088809980C159D04010921801109219014A
:1014E00010921A0110921B011092240110922501F2
:1014F00010922601109227010FB6F894DEBF0FBE9E
:10150000CDBFB1E08B16910409F099C0809118010C
:1015100090911901A0911A01B0911B01883B9B4049
:10152000A105B1050CF48BC0FE01319680E090E07E
:101530004F013E968C159D0544F420813181245045
:101540003109318320830196F4CFE114F10431F0A5
:101550003FEF431A530A81E090E014C01092240137
:101560001092250110922601109227011092180165
:101570001092190110921A0110921B0180E090E064
:10158000412C512C1C830B837E826D82BA86A986E6
:10159000ED96DFAECEAEED97C357DF4FF982E8820E
:1015A000CD58D040C157DF4F59824882CF58D040E4
:1015B000CF56DF4F99838883C159D0408DB79EB7EE
:1015C000825991090FB6F8949EBF0FBE8DBFADB77B
:1015D000BEB7119682E9F40101900D928A95E1F768
:1015E000CE018E559F4F0E94430182E9FE01EE55C8
:1015F000FF4FD40101900D928A95E1F70B811C8178
:101600006D807E80A984BA84ED96CEACDFACED9778
:10161000C357DF4FE880F980CD58D040C157DF4F26
:1016200048805980CF58D040CF56DF4F888099806E
:10163000C159D0400FB6F894DEBF0FBECDBF809128
:10164000200190912101A0912201B0912301883BBA
:101650009B40A105B1050CF480CC31E0A316B10488
:1016600009F07BCC84E0680E711C9FEFE91AF90A3F
:10167000A4E1EA16F10469F081E090E0A0E0B0E0B6
:101680008093200190932101A0932201B093230124
:1016900014C0109220011092210110922201109288
:1016A0002301109228011092290110922A01109210
:1016B0002B01E12CF12CA12CB12C1C830B837E82FD
:1016C0006D82BA86A986ED96DFAECEAEED97C35792
:1016D000DF4FF982E882CD58D040C157DF4F5982A1
:1016E0004882CF58D040CF56DF4F99828882C15967
:1016F000D040ADB7BEB7A259B1090FB6F894BEBF7E
:101700000FBEADBF119682E9FE01319601900D9298
:101710008A95E1F7CE018E559F4F0E94430182E9E1
:10172000FE01EE55FF4FDE01119601900D928A9554
:10173000E1F70B811C816D807E80A984BA84ED96CF
:10174000CEACDFACED97C357DF4FE880F980CD58C2
:10175000D040C157DF4F48805980CF58D040CF5636
:10176000DF4F88809980C159D0400FB6F894DEBF12
:101770000FBECDBFF2CB991B79E004C0991F96171D
:1017800008F0961B881F7A95C9F78095089597FBF6
:10179000072E16F4009407D077FD09D00E94FA0BAB
:1017A00007FC05D03EF4909581959F4F0895709564
:1017B00061957F4F0895052E97FB1EF400940E94BB
:1017C000F20B57FD07D00E940E0C07FC03D04EF41D
:1017D0000C94F20B50954095309521953F4F4F4F0B
:1017E0005F4F089590958095709561957F4F8F4FCD
:1017F0009F4F0895AA1BBB1B51E107C0AA1FBB1F27
:10180000A617B70710F0A61BB70B881F991F5A958C
:10181000A9F780959095BC01CD010895A1E21A2EFB
:10182000AA1BBB1BFD010DC0AA1FBB1FEE1FFF1F84
:10183000A217B307E407F50720F0A21BB30BE40BD4
:10184000F50B661F771F881F991F1A9469F760951B
:101850007095809590959B01AC01BD01CF010895D5
:101860005058BB27AA270E94480C0C94920D0E9446
:10187000840D38F00E948B0D20F039F49F3F19F44D
:1018800026F40C94810D0EF4E095E7FB0C947B0D8F
:10189000E92F0E94A30D58F3BA1762077307840754
:1018A000950720F079F4A6F50C94C50D0EF4E0959B
:1018B0000B2EBA2FA02D0B01B90190010C01CA010A
:1018C000A0011124FF27591B99F0593F50F4503EB5
:1018D00068F11A16F040A22F232F342F4427585FA7
:1018E000F3CF469537952795A795F0405395C9F7BF
:1018F0007EF41F16BA0B620B730B840BBAF0915077
:10190000A1F0FF0FBB1F661F771F881FC2F70EC015
:10191000BA0F621F731F841F48F4879577956795E8
:10192000B795F7959E3F08F0B0CF9395880F08F0D4
:101930009927EE0F9795879508950E94B10C0C9406
:10194000920D0E948B0D58F00E94840D40F029F4F6
:101950005F3F29F00C947B0D51110C94C60D0C9433
:10196000810D0E94A30D68F39923B1F3552391F3E0
:10197000951B550BBB27AA2762177307840738F0FE
:101980009F5F5F4F220F331F441FAA1FA9F335D05B
:101990000E2E3AF0E0E832D091505040E695001C0F
:1019A000CAF72BD0FE2F29D0660F771F881FBB1FC9
:1019B000261737074807AB07B0E809F0BB0B802DA7
:1019C000BF01FF2793585F4F3AF09E3F510578F0D3
:1019D0000C947B0D0C94C60D5F3FE4F3983ED4F35A
:1019E000869577956795B795F7959F5FC9F7880FA7
:1019F000911D9695879597F90895E1E0660F771FF9
:101A0000881FBB1F621773078407BA0720F0621B89
:101A1000730B840BBA0BEE1F88F7E09508950E94B4
:101A2000AB0D88F09F5798F0B92F9927B751B0F0B8
:101A3000E1F0660F771F881F991F1AF0BA95C9F752
:101A400014C0B13091F00E94C50DB1E008950C941E
:101A5000C50D672F782F8827B85F39F0B93FCCF3D1
:101A6000869577956795B395D9F73EF490958095CF
:101A7000709561957F4F8F4F9F4F0895E89409C0EF
:101A800097FB3EF490958095709561957F4F8F4FB1
:101A90009F4F9923A9F0F92F96E9BB279395F695C7
:101AA000879577956795B795F111F8CFFAF4BB0F45
:101AB00011F460FF1BC06F5F7F4F8F4F9F4F16C0A9
:101AC000882311F096E911C0772321F09EE8872F33
:101AD000762F05C0662371F096E8862F70E060E0EF
:101AE0002AF09A95660F771F881FDAF7880F969568
:101AF000879597F9089597F99F6780E870E060E00F
:101B000008959FEF80EC089500240A941616170696
:101B100018060906089500240A94121613061406DE
:101B200005060895092E0394000C11F4882352F041
:101B3000BB0F40F4BF2B11F460FF04C06F5F7F4FF9
:101B40008F4F9F4F089557FD9058440F551F59F0E0
:101B50005F3F71F04795880F97FB991F61F09F3F9A
:101B600079F087950895121613061406551FF2CFC3
:101B70004695F1DF08C0161617061806991FF1CF13
:101B800086957105610508940895E894BB2766273A
:101B90007727CB0197F908950E94D10D08F48FEFB4
:101BA0000895990F0008550FAA0BE0E8FEEF1616EE
:101BB0001706E807F907C0F012161306E407F50741
:101BC00098F0621B730B840B950B39F40A2661F0B5
:101BD000232B242B252B21F408950A2609F4A14058
:101BE000A6958FEF811D811D08958F929F92AF92D0
:101BF000BF92CF92DF92EF92FF92CF93DF93EC01EF
:101C0000688179818A819B816115710581059105C2
:101C100021F464E279ED8BE597E02DE133EF41E0CB
:101C200050E00E94DB0B49015A019B01AC01A7EA7D
:101C3000B1E40E945A0E6B017C01ACEEB4EFA50139
:101C400094010E94680EDC01CB018C0D9D1DAE1D20
:101C5000BF1DB7FF03C00197A109B04888839983CE
:101C6000AA83BB839F77DF91CF91FF90EF90DF90A6
:101C7000CF90BF90AF909F908F9008950E94F50DE8
:101C8000089585E091E00E94F50D0895A0E0B0E090
:101C90008093050190930601A0930701B09308017A
:101CA0000895FB01DC0102C005900D9241505040A7
:101CB000D8F708950E946D0EA59F900DB49F900DCA
:101CC000A49F800D911D11240895B7FF0C945A0E06
:101CD0000E945A0E821B930B0895A29FB001B39FDE
:101CE000C001A39F700D811D1124911DB29F700D25
:0C1CF000811D1124911D0895F894FFCF70
:101CFC001024E02410010000005D77140808080887
:081D0C0008080811150A0E1168
:00000001FF
