:100000000C9424010C9441010C9441010C94410185
:100010000C9441010C9441010C9441010C94410158
:100020000C9441010C9441010C9441010C94DF03A8
:100030000C9441010C9441010C9441010C94410138
:100040000C9441010C9441010C9441010C94410128
:100050000C9441010C9441010C9441010C94410118
:100060000C9441010C944101000000000000005F6D
:1000700000000007000700147F147F14242A7F2A41
:10008000122313086462364955225000050300000C
:10009000001C2241000041221C0014083E081408E4
:1000A000083E0808005030000008080808080060F2
:1000B00060000020100804023E5149453E00427F86
:1000C000400042615149462141454B311814127F8D
:1000D0001027454545393C4A494930017109050316
:1000E0003649494936064949291E0036360000007E
:1000F0005636000008142241001414141414004150
:100100002214080201510906324979413E7E11113B
:10011000117E7F494949363E414141227F4141227A
:100120001C7F494949417F090909013E4149497AF2
:100130007F0808087F00417F41002040413F017F48
:10014000081422417F404040407F020C027F7F0420
:1001500008107F3E4141413E7F090909063E415159
:10016000215E7F09192946464949493101017F012C
:10017000013F4040403F1F2040201F3F4038403F4C
:100180006314081463070870080761514945430068
:100190007F41410002040810200041417F00040219
:1001A0000102044040404040000102040020545439
:1001B00054787F48444438384444442038444448C0
:1001C0007F3854545418087E0901020C5252523E92
:1001D0007F0804047800447D40002040443D007FB7
:1001E0001028440000417F40007C041804787C08FB
:1001F00004047838444444387C1414140808141453
:10020000187C7C080404084854545420043F44409B
:10021000203C4040207C1C2040201C3C4030403C86
:1002200044281028440C5050503C4464544C440022
:100230000836410000007F00000041360800100829
:10024000081008000000000011241FBECFEFD8E006
:10025000DEBFCDBF11E0A0E0B1E0ECEAF0E202C009
:1002600005900D92A836B107D9F723E0A8E6B1E0D2
:1002700001C01D92A03BB207E1F70E94E1060C9479
:1002800054100C9400002F923F924F925F926F9205
:100290007F928F929F92AF92BF92CF92DF92EF9216
:1002A000FF920F931F93CF93DF9300D0CDB7DEB7AC
:1002B0004C01CB8CDC8CED8CFE8C6F8C78A0CF55F8
:1002C000DF4F08811981C15AD040CD54DF4F88815A
:1002D0009981C35BD0409A838983CB54DF4F488098
:1002E0005980C55BD0400E946604698D8F890E9449
:1002F0005B0562E082E00E94A00491E0691671044F
:1003000009F0A1C06E2D8C2D0E945B0562E083E098
:100310000E94A004E8E0EE16F10484F0F4E1EF1688
:10032000F1047CF080E2E816F1047CF090E2E9163A
:10033000F10479F453E0E52EF12C0EC0E12CF12C00
:100340000BC0EE24E394F12C07C032E0E32EF12C35
:1003500003C0EE24EA94FE2CE4E4CE16D10441F06E
:10036000F8E3CF16D10439F422242394312C06C0AB
:10037000212C312C03C022242A94322CCE01479602
:100380006C01A12CB12CA016B1060CF05CC0F601DA
:10039000848995892816390609F04EC0868997897F
:1003A000E816F90609F048C001501109809168016A
:1003B0009091690101969093690180936801B2015F
:1003C000550C880B990B0E94C10B2B013C012DECA5
:1003D0003CEC4CEC5DE30E94520C9B01AC01C30170
:1003E000B2010E94AA0A0E94890B2B01C601950145
:1003F000201731076CF42F5F3F4F40E1FC017A96E4
:10040000DC011A9601900D924A95E1F74096F0CFE3
:1004100010926A0110926B0110926C0110926D01A2
:1004200010926E0110926F01109270011092710182
:100430001A821982612C712CFFEFAF1ABF0A80E17A
:10044000C80ED11CA0CFFE0177967F01C12CD12C04
:10045000C016D10684F4F701648582850E945B058D
:1004600062E084E00E94A004FFEFCF1ADF0A80E17F
:10047000E80EF11CEDCF0E94600578A26F8ECF557B
:10048000DF4F19830883C15AD040E981FA81CD54E6
:10049000DF4FF983E883C35BD040CB54DF4F5982F1
:1004A0004882C55BD04080EAFE017796D401019076
:1004B0000D928A95E1F7C4010F900F90DF91CF91D3
:1004C0001F910F91FF90EF90DF90CF90BF90AF9072
:1004D0009F908F907F906F905F904F903F902F9064
:1004E00008955F926F927F928F929F92AF92BF9288
:1004F000CF92DF92EF92FF920F931F93CF93DF93F0
:10050000CDB7DEB75C01C456DF4FC880D980CC5967
:10051000D04080E090E00E94CE06CB010E94340DD6
:1005200028E0C216D1040CF08EC00E942F0D62E0AC
:1005300070E00E94410A8C0124EF20037001219F8A
:10054000F00C112434E4E30EF11C0E942F0D64E042
:1005500070E00E94410A2CE0289FA001299F500DC5
:10056000112420E030E072E0672E712CE4E08E2E42
:10057000912CFCE05F2E2C153D05A4F5F90164E0FB
:10058000EE0FFF1F6A95E1F762E170E06C0F7D1FCF
:10059000E60FF71F648575854617570701F56285D5
:1005A00073856E157F05D9F40E942F0DB3010E944B
:1005B000410A8C0174EF70037001719FF00C1124DB
:1005C00084E4E80EF11C0E942F0DB4010E94410A40
:1005D000589EA001599E500D112420E030E02F5F5D
:1005E0003F4FC9CFF60124E0EE0FFF1F2A95E1F738
:1005F0003A9622E130E02C0F3D1FE20FF31FF1820B
:10060000E082538342831186108613870287958781
:100610008487F801EE0FFF1FEE0FFF1FE80FF91F91
:10062000EA5BFF4FEE0FFF1FE20FF31F81E090E048
:10063000918380833FEFC31AD30AC456DF4FD98218
:10064000C882CC59D04080EAFE017296D501019053
:100650000D928A95E1F7C501DF91CF911F910F911E
:10066000FF90EF90DF90CF90BF90AF909F908F90D2
:100670007F906F905F900895CF93DF9300D01F928B
:10068000CDB7DEB70E94660461E088E191E00E9488
:100690004B056CE080E00E945B0561E081E291E047
:1006A0000E944B0568E180E00E945B0561E08BE2FF
:1006B00091E00E944B0564E280E00E945B0580911E
:1006C00069018F93809168018F9386E391E09F93F6
:1006D0008F938E010F5F1F4F1F930F930E94480D42
:1006E00061E089E391E00E944B0561E0C8010E944E
:1006F0004B050E9460050F900F900F900F900F9088
:100700000F90FFCF0F931F93CF93DF93CDB7DEB73B
:100710008C0189859A8528E030E03C872B879E876D
:100720008D8781E090E0988B8F878DB79EB7805A38
:1007300091090FB6F8949EBF0FBE8DBFADB7BEB77F
:10074000119680EAFE01379601900D928A95E1F7A5
:10075000CE0107960E94430180EAFE013796D80138
:1007600001900D928A95E1F70FB6F894DEBF0FBEA7
:10077000CDBFC801DF91CF911F910F9108950F93C5
:100780001F93CF93DF93EC018B010E946604602FCF
:100790008C2F0E945B0562E082E00E94A0040E9410
:1007A00060052FEF81EE94E0215080409040E1F70A
:1007B00000C00000DF91CF911F910F9108951F920B
:1007C0000F920FB60F9211248F939F93AF93BF9305
:1007D00080916E0190916F01A0917001B0917101B3
:1007E0000196A11DB11D80936E0190936F01A0939E
:1007F0007001B0937101BF91AF919F918F910F9054
:100800000FBE0F901F9018952998662311F02B9A10
:1008100001C02B9827E030E090E0AC01022E02C02E
:10082000559547950A94E2F740FF02C02C9A01C003
:100830002C982D9A2D982150310978F7299A0895EE
:1008400060E00C940404CF93DF93219A229A239AB8
:10085000249A259A2A9A299A8FE39CE90197F1F71D
:1008600000C000002A989FEF2AE683E091502040C4
:100870008040E1F700C000002A9A299881E20E9496
:10088000200483E10E94200486E00E94200482EC80
:100890000E94200480E20E94200489E00E9420043B
:1008A00080E80E94200480E40E942004C8EFD1E088
:1008B00061E080E00E9404042197D1F788E00E9463
:1008C00020048CE0DF91CF910C94200480E80E94FA
:1008D000200480E40E94200410926A0310926B03AB
:1008E00088EF91E0E2E7F1E0DF019C011D922150E9
:1008F0003040E1F70895811102C084E201C080E236
:100900000C942004962F969596959695E82FF0E0F6
:1009100084E5989FE00DF11D1124EE58FE4F67709D
:1009200081E090E001C0880F6A95EAF7442319F04E
:100930009081892B03C080959081892380830895BD
:100940008F929F92AF92BF92DF92EF92FF920F939E
:100950001F93CF93DF9300D000D01F92CDB7DEB7A7
:10096000F62E282F082E000C330B80326CF020520C
:10097000310985E0829FB001839F700D1124685971
:100980007F4F45E050E00EC0220F331FF901E459BC
:10099000FC4F008111810115110559F445E050E02B
:1009A00068E670E0CE0101960E943F0D8E010F5F58
:1009B0001F4F85E0F89E5001112497E0F99E4001F9
:1009C0001124D12C8D2D90E08A159B0544F5E12C46
:1009D0008E2D90E08815990504F58D2D6F2D0E94C0
:1009E000350AF801E80FF11D208130E08E2D0E94BC
:1009F000350A02C0359527958A95E2F760916B0319
:100A000080916A036E0D20FF02C041E001C040E00A
:100A10008D0D0E948204E394DBCFD394D3CF8091D9
:100A20006A0391E0980F8F2D880F880F8F0D890F23
:100A3000843518F480936A030BC010926A03809186
:100A40006B038F5F97E0F99E800D112480936B03F9
:100A500080916B03803320F010926A0310926B0335
:100A60000F900F900F900F900F90DF91CF911F91EB
:100A70000F91FF90EF90DF90BF90AF909F908F907D
:100A8000089580323CF4E82FEE0FFF0BE459FC4F41
:100A90007183608308951F93CF93DF93162FEC012A
:100AA0008991882321F0612F0E94A004F9CFDF9162
:100AB000CF911F91089580936A0360936B0308950B
:100AC000CF93DF9380E80E94200480E40E942004FA
:100AD000C2E7D1E061E089910E94040483E0CA3654
:100AE000D807C1F7DF91CF9108954F925F926F922F
:100AF0007F928F929F92AF92BF92CF92DF92EF92AE
:100B0000FF92CF93DF93CDB7DEB72E970FB6F89451
:100B1000DEBF0FBECDBF8D876987F22E642F70E0D8
:100B2000681B7109072E000C880B990B0E94C10BE2
:100B30004B015C016F2D70E02985621B7109072E46
:100B4000000C880B990B0E94C10B6B017C012401E6
:100B50003501E89477F8DC01CB01BF7789839A836C
:100B6000AB83BC839C01AD01C301B2010E944D0C5B
:100B700087FF04C049805A806B807C80A30192016A
:100B8000C501B4010E94170B69837A838B839C8310
:100B9000A3019201C701B6010E94170B6D837E83EA
:100BA0008F839887AD856A2F70E080E090E00E9487
:100BB000BF0B6B017C01B9856B2F70E080E090E08A
:100BC0000E94BF0B4B015C0121E030E03E872D8786
:100BD000AD85BE85BD01BB0F880B990B0E94C10B73
:100BE0009B01AC01C301B2010E944D0C87FD2CC0DA
:100BF000C501B4010E94900B69877A878B879C8717
:100C0000C701B6010E94900BDC01CB0141E0698570
:100C10000E94820429813A814B815C81C701B6011F
:100C20000E94AB0A6B017C012D813E814F8158856A
:100C3000C501B4010E94AB0A4B015C018D859E8504
:100C400001969E878D87C4CF2E960FB6F894DEBF8F
:100C50000FBECDBFDF91CF91FF90EF90DF90CF908F
:100C6000BF90AF909F908F907F906F905F904F90CC
:100C700008950F931F93CF93DF93C82F162F042F40
:100C8000D22F262F0E9475052D2F402F612F802FE8
:100C90000E9475052D2F4C2F6D2F802F0E947505FA
:100CA000212F4C2F6D2F8C2FDF91CF911F910F9102
:100CB0000C9475057F928F929F92AF92BF92CF92C4
:100CC000DF92EF92FF920F931F93CF93DF93D82E73
:100CD000C62EC42FD0E0E12CF12C00E010E041E062
:100CE000AC2CA00E6A2DBC2EBD0C8B2D0E94820454
:100CF00041E08C2E8C0C682D9D2C900E892D0E942D
:100D0000820441E0682D7D2C701A872D0E94820498
:100D100041E06A2D8D2C8C1A882D0E94820441E0BE
:100D2000AC2CA01A6A2D882D0E94820441E08C2CE4
:100D30008C1A682D872D0E94820441E0682D892D30
:100D40000E94820441E06A2D8B2D0E9482041E14B1
:100D50001F045CF00F5F1F4FC801880F991F019699
:100D6000E80EF91E1E141F043CF42197CE01880FD3
:100D7000991F0196E81AF90AC017D1070CF0AFCFF6
:100D8000DF91CF911F910F91FF90EF90DF90CF9067
:100D9000BF90AF909F908F907F900895FC010FB609
:100DA000F8946091AC037091AD038091AE03909183
:100DB000AF030FBE309721F06083718382839383EA
:100DC0000895CF93DF93CDB7DEB7CF54D1400FB6A0
:100DD000F894DEBF0FBECDBF0E9423040E946604BC
:100DE000569857982098389A85E0E9E0F1E0DE01BE
:100DF000A555BF4F01900D928A95E1F7BE0165554B
:100E00007F4F82E00E94410585E0EEE0F1E0DE01E7
:100E1000AA55BF4F01900D928A95E1F7BE016A5520
:100E20007F4F83E00E94410585E0E3E1F1E0DE01D0
:100E3000AF55BF4F01900D928A95E1F7BE016F55F6
:100E40007F4F84E00E944105F89410928000109238
:100E500081001092850010928400109289001092F7
:100E6000880080918100886080938100809181005A
:100E700085608093810080916F00826080936F0015
:100E8000419A78941A82198218861F8210926A01F8
:100E900010926B0110926C0110926D0161E081E47F
:100EA00091E00E944B056CE080E00E945B0561E0F0
:100EB0008BE491E00E944B0568E180E00E945B05B5
:100EC00061E082E591E00E944B0564E280E00E94CF
:100ED0005B0561E08EE591E00E944B050E94600594
:100EE0004F9904C04E9902C0189BFACF88ECA82EE7
:100EF0008FEAB82E612C712CE12CF12C812C912CD5
:100F0000C12CD12C00E010E0212C312C21012394A4
:100F100060916E0170916F018091700190917101EB
:100F200095010B2C000C440B550B0E94550A672BA6
:100F3000682B692B09F080C01C830B83DE82CD8275
:100F40009A868986C557DF4FF982E882CB58D04010
:100F5000C356DF4F79826882CD59D040C156DF4FEA
:100F6000B982A882CF59D0408DB79EB7805A9109D7
:100F70000FB6F8949EBF0FBE8DBFADB7BEB711962A
:100F800080EAFE01319601900D928A95E1F7CE013B
:100F900080559F4F0E94710280EAFE01E055FF4F8D
:100FA000DE01119601900D928A95E1F78DB79EB7FB
:100FB00080569F4F0FB6F894DEBF0FBECDBF805A4C
:100FC00091090FB6F8949EBF0FBE8DBFADB7BEB7E7
:100FD000119680EAFE01319601900D928A95E1F713
:100FE000CE0180559F4F0E94430180EAFE01E055EB
:100FF000FF4FDE01119601900D928A95E1F70B816A
:101000001C81CD80DE8089849A84C557DF4FE880BB
:10101000F980CB58D040C356DF4F68807980CD59D6
:10102000D040C156DF4FA880B980CF59D0400FB60D
:10103000F894DEBF0FBECDBFFE01319680E090E098
:1010400070968E159F0544F4208531852F5F3F4FA4
:10105000318720870196F4CF98E0E916F10459F41E
:101060002FEF83ED90E3215080409040E1F700C0E6
:1010700000000E943C034F9B65C00032110511F037
:101080000C5F1F4F1C830B83DE82CD829A8689867C
:10109000C557DF4FF982E882CB58D040C356DF4FA7
:1010A00079826882CD59D040C156DF4FB982A8827B
:1010B000CF59D0408DB79EB7805A91090FB6F8949A
:1010C0009EBF0FBE8DBFADB7BEB7119680EAFE01C1
:1010D000319601900D928A95E1F7CE0180559F4F90
:1010E0000E94430180EAFE01E055FF4FDE011196A8
:1010F00001900D928A95E1F70B811C81CD80DE80F5
:1011000089849A84C557DF4FE880F980CB58D04056
:10111000C356DF4F68807980CD59D040C156DF4F2C
:10112000A880B980CF59D0409FEF21EE84E0915044
:1011300020408040E1F700C000000FB6F894DEBF09
:101140000FBECDBF4E9B65C00115110511F00450B7
:1011500011091C830B83DE82CD829A868986C5574E
:10116000DF4FF982E882CB58D040C356DF4F7982F7
:101170006882CD59D040C156DF4FB982A882CF597D
:10118000D0408DB79EB7805A91090FB6F8949EBF94
:101190000FBE8DBFADB7BEB7119680EAFE01319686
:1011A00001900D928A95E1F7CE0180559F4F0E94E4
:1011B000430180EAFE01E055FF4FDE0111960190E8
:1011C0000D928A95E1F70B811C81CD80DE808984A8
:1011D0009A84C557DF4FE880F980CB58D040C3567A
:1011E000DF4F68807980CD59D040C156DF4FA8804D
:1011F000B980CF59D0409FEF21EE84E0915020403C
:101200008040E1F700C000000FB6F894DEBF0FBECB
:10121000CDBF189B6CC08114910409F068C01C8379
:101220000B83DE82CD821A861986C557DF4FF9827D
:10123000E882CB58D040C356DF4F79826882CD59BF
:10124000D040C156DF4FB982A882CF59D0408DB768
:101250009EB7805A91090FB6F8949EBF0FBE8DBFFE
:10126000ADB7BEB7119680EAFE01319601900D929E
:101270008A95E1F7CE0180559F4F0E94820380EA54
:10128000FE01E055FF4FDE01119601900D928A9507
:10129000E1F70B811C81CD80DE8089849A84C5575B
:1012A000DF4FE880F980CB58D040C356DF4F6880CD
:1012B0007980CD59D040C156DF4FA880B980CF5931
:1012C000D0409FEF21EE84E0915020408040E1F734
:1012D00000C0000020926A0130926B0140926C01C4
:1012E00050926D010FB6F894DEBF0FBECDBF809156
:1012F0006A0190916B01A0916C01B0916D0118167B
:1013000019061A061B06ECF4409A40916A015091A6
:101310006B0160916C0170916D0180916E019091F3
:101320006F01A0917001B0917101840F951FA61FEC
:10133000B71F80936A0190936B01A0936C01B093E7
:101340006D0180916A0190916B01A0916C01B09147
:101350006D01883B9B40A105B1050CF4D9CD81E01E
:101360008816910409F0D4CD94E0C90ED11C2FEF5A
:10137000621A720A84E16816710459F020926A01B7
:1013800030926B0140926C0150926D0181E090E0CF
:1013900014C010926A0110926B0110926C011092AD
:1013A0006D0110926E0110926F01109270011092F7
:1013B0007101612C712C80E090E01C830B83DE8234
:1013C000CD829A878987C557DF4FF982E882CB584B
:1013D000D040C356DF4F79826882CD59D040C15684
:1013E000DF4FB982A882CF59D0408DB79EB7805ABF
:1013F00091090FB6F8949EBF0FBE8DBFADB7BEB7B3
:10140000119680EAFE01319601900D928A95E1F7DE
:10141000CE0180559F4F0E94430180EAFE01E055B6
:10142000FF4FDE01119601900D928A95E1F70B8135
:101430001C81CD80DE8089849A84C557DF4FE88087
:10144000F980CB58D040C356DF4F68807980CD59A2
:10145000D040C156DF4FA880B980CF59D0400FB6D9
:10146000F894DEBF0FBECDBF53CD991B79E004C009
:10147000991F961708F0961B881F7A95C9F78095D3
:10148000089597FB072E16F4009407D077FD09D036
:101490000E94740A07FC05D03EF4909581959F4FF9
:1014A0000895709561957F4F0895052E97FB1EF462
:1014B00000940E946C0A57FD07D00E94880A07FC1E
:1014C00003D04EF40C946C0A5095409530952195BC
:1014D0003F4F4F4F5F4F0895909580957095619560
:1014E0007F4F8F4F9F4F0895AA1BBB1B51E107C031
:1014F000AA1FBB1FA617B70710F0A61BB70B881FA4
:10150000991F5A95A9F780959095BC01CD01089532
:10151000A1E21A2EAA1BBB1BFD010DC0AA1FBB1FF7
:10152000EE1FFF1FA217B307E407F50720F0A21B69
:10153000B30BE40BF50B661F771F881F991F1A94D6
:1015400069F760957095809590959B01AC01BD0100
:10155000CF0108955058BB27AA270E94C20A0C94B5
:10156000130C0E94050C38F00E940C0C20F039F48A
:101570009F3F19F426F40C94020C0EF4E095E7FB5F
:101580000C94FC0BE92F0E94240C58F3BA17620745
:1015900073078407950720F079F4A6F50C94460CA0
:1015A0000EF4E0950B2EBA2FA02D0B01B90190017E
:1015B0000C01CA01A0011124FF27591B99F0593FC2
:1015C00050F4503E68F11A16F040A22F232F342F0A
:1015D0004427585FF3CF469537952795A795F04058
:1015E0005395C9F77EF41F16BA0B620B730B840B6D
:1015F000BAF09150A1F0FF0FBB1F661F771F881F25
:10160000C2F70EC0BA0F621F731F841F48F487957C
:1016100077956795B795F7959E3F08F0B0CF93956E
:10162000880F08F09927EE0F9795879508950E94E7
:101630002B0B0C94130C0E940C0C58F00E94050C00
:1016400040F029F45F3F29F00C94FC0B51110C94ED
:10165000470C0C94020C0E94240C68F39923B1F3FC
:10166000552391F3951B550BBB27AA2762177307C8
:10167000840738F09F5F5F4F220F331F441FAA1F5C
:10168000A9F335D00E2E3AF0E0E832D09150504018
:10169000E695001CCAF72BD0FE2F29D0660F771FC6
:1016A000881FBB1F261737074807AB07B0E809F0AC
:1016B000BB0B802DBF01FF2793585F4F3AF09E3F31
:1016C000510578F00C94FC0B0C94470C5F3FE4F34D
:1016D000983ED4F3869577956795B795F7959F5F74
:1016E000C9F7880F911D9695879597F90895E1E0C0
:1016F000660F771F881FBB1F621773078407BA071F
:1017000020F0621B730B840BBA0BEE1F88F7E09579
:1017100008950E94900B6894B1110C94470C0895A1
:101720000E942C0C88F09F5798F0B92F9927B75139
:10173000B0F0E1F0660F771F881F991F1AF0BA9575
:10174000C9F714C0B13091F00E94460CB1E0089581
:101750000C94460C672F782F8827B85F39F0B93F73
:10176000CCF3869577956795B395D9F73EF4909528
:101770008095709561957F4F8F4F9F4F0895E894A6
:1017800009C097FB3EF490958095709561957F4FC9
:101790008F4F9F4F9923A9F0F92F96E9BB27939577
:1017A000F695879577956795B795F111F8CFFAF487
:1017B000BB0F11F460FF1BC06F5F7F4F8F4F9F4FB8
:1017C00016C0882311F096E911C0772321F09EE816
:1017D000872F762F05C0662371F096E8862F70E07C
:1017E00060E02AF09A95660F771F881FDAF7880F56
:1017F0009695879597F9089597F99F6780E870E027
:1018000060E008959FEF80EC089500240A94161676
:10181000170618060906089500240A9412161306DE
:10182000140605060895092E0394000C11F488236C
:1018300052F0BB0F40F4BF2B11F460FF04C06F5F88
:101840007F4F8F4F9F4F089557FD9058440F551F5E
:1018500059F05F3F71F04795880F97FB991F61F032
:101860009F3F79F087950895121613061406551FA9
:10187000F2CF4695F1DF08C0161617061806991F15
:10188000F1CF86957105610508940895E894BB270A
:1018900066277727CB0197F908950E94BF0C08F4BB
:1018A0008FEF08950E94650C0C94130C0E94050C98
:1018B00038F00E940C0C20F0952311F00C94FC0BD6
:1018C0000C94020C11240C94470C0E94240C70F30D
:1018D000959FC1F3950F50E0551F629FF001729FD5
:1018E000BB27F00DB11D639FAA27F00DB11DAA1FE4
:1018F000649F6627B00DA11D661F829F2227B00D31
:10190000A11D621F739FB00DA11D621F839FA00DBB
:10191000611D221F749F3327A00D611D231F849F0B
:10192000600D211D822F762F6A2F11249F57504062
:101930009AF0F1F088234AF0EE0FFF1FBB1F661FDD
:10194000771F881F91505040A9F79E3F510580F0A6
:101950000C94FC0B0C94470C5F3FE4F3983ED4F3DB
:10196000869577956795B795F795E7959F5FC1F74A
:10197000FE2B880F911D9695879597F90895990FDD
:101980000008550FAA0BE0E8FEEF16161706E80749
:10199000F907C0F012161306E407F50798F0621B6A
:1019A000730B840B950B39F40A2661F0232B242B3F
:1019B000252B21F408950A2609F4A140A6958FEF5E
:1019C000811D811D08958F929F92AF92BF92CF92F9
:1019D000DF92EF92FF92CF93DF93EC0168817981E0
:1019E0008A819B81611571058105910521F464E26D
:1019F00079ED8BE597E02DE133EF41E050E00E9477
:101A0000550A49015A019B01AC01A7EAB1E40E94C1
:101A1000FB0F6B017C01ACEEB4EFA50194010E94B9
:101A20000910DC01CB018C0D9D1DAE1DBF1DB7FF44
:101A300003C00197A109B04888839983AA83BB8317
:101A40009F77DF91CF91FF90EF90DF90CF90BF9085
:101A5000AF909F908F9008950E94E30C089585E0C9
:101A600091E00E94E30C0895A0E0B0E080930501AE
:101A700090930601A0930701B09308010895FB011C
:101A8000DC0102C005900D9241505040D8F70895F6
:101A9000AEE0B0E0EEE4FDE00C941C100D891E8970
:101AA00086E08C831A8309838FEF9FE79E838D8363
:101AB000AE01475E5F4F6F89788DCE0101960E941F
:101AC0006A0DEF81F885E00FF11F10822E96E4E099
:101AD0000C943810ABE0B0E0E0E7FDE00C940E10A1
:101AE0006C017B018A01FC0117821682838181FFD0
:101AF000CCC1CE0101963C01F6019381F70193FD23
:101B0000859193FF81917F01882309F4BAC18532C1
:101B100039F493FD859193FF81917F01853229F4FA
:101B2000B60190E00E94610FE7CF912C212C312C5F
:101B3000FFE1F315D8F08B3279F038F4803279F088
:101B40008332A1F4232D20611DC08D3261F08033DA
:101B500069F4232D216016C0832D8260382EE32D79
:101B6000E4603E2E2AC0F32DF8601DC037FC2DC066
:101B700020ED280F2A3040F08E32B9F436FC81C1B6
:101B8000232D2064322E19C036FE06C08AE0989EAE
:101B9000200D1124922E11C0EAE02E9E200D11245A
:101BA000222EF32DF0623F2E08C08C3621F4832DB7
:101BB0008068382E02C0883641F4F70193FD859184
:101BC00093FF81917F018111B3CF982F9F7D955411
:101BD000933028F40C5F1F4F9FE399830DC0833629
:101BE00031F0833771F0833509F059C021C0F80115
:101BF000808189830E5F1F4F88248394912C530129
:101C000013C02801F2E04F0E511CF801A080B180F2
:101C100036FE03C0692D70E002C06FEF7FEFC50193
:101C20000E94560F4C018201F32DFF773F2E16C004
:101C3000280122E0420E511CF801A080B18036FE3E
:101C400003C0692D70E002C06FEF7FEFC5010E94F5
:101C50004B0F4C01F32DF0683F2E820133FC1BC06B
:101C6000822D90E088169906B0F4B60180E290E0EB
:101C70000E94610F2A94F4CFF50137FC859137FE5D
:101C800081915F01B60190E00E94610F21102A94BA
:101C900021E0821A91088114910471F7E8C084361A
:101CA00011F0893641F5F80137FE07C06081718176
:101CB000828193810C5F1F4F08C060817181072E64
:101CC000000C880B990B0E5F1F4FF32DFF763F2EF4
:101CD00097FF09C090958095709561957F4F8F4FC4
:101CE0009F4FF0683F2E2AE030E0A3010E949D0F35
:101CF000882E861845C0853731F4232D2F7EB22ECD
:101D00002AE030E025C0932D997FB92E8F36C1F09F
:101D100018F4883579F0B5C0803719F0883721F08C
:101D2000B0C0E92FE061BE2EB4FE0DC0FB2DF46003
:101D3000BF2E09C034FE0AC0292F2660B22E06C06D
:101D400028E030E005C020E130E002C020E132E0D0
:101D5000F801B7FE07C060817181828193810C5FB9
:101D60001F4F06C06081718180E090E00E5F1F4FC1
:101D7000A3010E949D0F882E8618FB2DFF773F2E12
:101D800036FE0DC0232D2E7FA22E891458F434FE6A
:101D90000BC032FC09C0832D8E7EA82E05C0B82C46
:101DA000A32C03C0B82C01C0B92CA4FE0FC0FE01A7
:101DB000E80DF11D8081803321F49A2D997EA92EA2
:101DC00009C0A2FE06C0B394B39404C08A2D8678DD
:101DD00009F0B394A3FC11C0A0FE06C0B21488F4AD
:101DE000280C922C9B180EC0B21460F4B60180E24D
:101DF00090E00E94610FB394F7CFB21418F42B183F
:101E000002C0982C212CA4FE10C0B60180E390E003
:101E10000E94610FA2FE17C0A1FC03C088E790E0FA
:101E200002C088E590E0B6010CC08A2D867859F092
:101E3000A1FE02C08BE201C080E2A7FC8DE2B601E8
:101E400090E00E94610F891438F4B60180E390E0BD
:101E50000E94610F9A94F7CF8A94F301E80DF11D67
:101E60008081B60190E00E94610F8110F5CF2220A1
:101E700009F442CEB60180E290E00E94610F2A94FC
:101E8000F6CFF6018681978102C08FEF9FEF2B96E8
:101E9000E2E10C942A10FC010590615070400110A1
:101EA000D8F7809590958E0F9F1F0895FC01615083
:101EB000704001900110D8F7809590958E0F9F1F6C
:101EC00008950F931F93CF93DF93FB01238121FD8F
:101ED00003C08FEF9FEF2CC022FF16C046815781B1
:101EE000248135814217530744F4A081B1819D01BB
:101EF0002F5F3F4F318320838C93268137812F5F63
:101F00003F4F3783268314C08B01EC01FB01008413
:101F1000F185E02D0995892BE1F6D80116968D9172
:101F20009C911797019617969C938E931697CE01C6
:101F3000DF91CF911F910F910895FA01AA272830C0
:101F400051F1203181F1E8946F936E7F6E5F7F4F86
:101F50008F4F9F4FAF4FB1E03ED0B4E03CD0670F02
:101F6000781F891F9A1FA11D680F791F8A1F911D55
:101F7000A11D6A0F711D811D911DA11D20D009F4A5
:101F800068943F912AE0269F11243019305D3193E7
:101F9000DEF6CF010895462F4770405D4193B3E0D0
:101FA0000FD0C9F7F6CF462F4F70405D4A3318F077
:101FB000495D31FD4052419302D0A9F7EACFB4E028
:101FC000A6959795879577956795BA95C9F70097E0
:101FD0006105710508959B01AC010A2E0694579581
:101FE000479537952795BA95C9F7620F731F841FD8
:101FF000951FA01D08950E944510A59F900DB49FA8
:10200000900DA49F800D911D11240895B7FF0C948D
:10201000FB0F0E94FB0F821B930B08952F923F92A0
:102020004F925F926F927F928F929F92AF92BF92E8
:10203000CF92DF92EF92FF920F931F93CF93DF9394
:10204000CDB7DEB7CA1BDB0B0FB6F894DEBF0FBEF1
:10205000CDBF09942A88398848885F846E847D843E
:102060008C849B84AA84B984C884DF80EE80FD8040
:102070000C811B81AA81B981CE0FD11D0FB6F894B6
:10208000DEBF0FBECDBFED010895A29FB001B39F8B
:10209000C001A39F700D811D1124911DB29F700D71
:0C20A000811D1124911D0895F894FFCFBC
:1020AC001024E02410010000005D771408080808D3
:1020BC0008080811150A0E11446572726F746121BB
:1020CC00004F7320616C69656E7300696E76616494
:1020DC006972616D2100256400506F6E742E3A2078
:1020EC0000446566656E64612061005465727261BE
:1020FC002100417065727465207061726120436FBC
:08210C006D65C3A761720000BC
:00000001FF
