:100000000C9424010C9441010C9441010C94410185
:100010000C9441010C9441010C9441010C94410158
:100020000C9441010C9441010C9441010C94610326
:100030000C9441010C9441010C9441010C94410138
:100040000C9441010C9441010C9441010C94410128
:100050000C9441010C9441010C9441010C94410118
:100060000C9441010C944101000000000000005F6D
:1000700000000007000700147F147F14242A7F2A41
:10008000122313086462364955225000050300000C
:10009000001C2241000041221C0014083E081408E4
:1000A000083E0808005030000008080808080060F2
:1000B00060000020100804023E5149453E00427F86
:1000C000400042615149462141454B311814127F8D
:1000D0001027454545393C4A494930017109050316
:1000E0003649494936064949291E0036360000007E
:1000F0005636000008142241001414141414004150
:100100002214080201510906324979413E7E11113B
:10011000117E7F494949363E414141227F4141227A
:100120001C7F494949417F090909013E4149497AF2
:100130007F0808087F00417F41002040413F017F48
:10014000081422417F404040407F020C027F7F0420
:1001500008107F3E4141413E7F090909063E415159
:10016000215E7F09192946464949493101017F012C
:10017000013F4040403F1F2040201F3F4038403F4C
:100180006314081463070870080761514945430068
:100190007F41410002040810200041417F00040219
:1001A0000102044040404040000102040020545439
:1001B00054787F48444438384444442038444448C0
:1001C0007F3854545418087E0901020C5252523E92
:1001D0007F0804047800447D40002040443D007FB7
:1001E0001028440000417F40007C041804787C08FB
:1001F00004047838444444387C1414140808141453
:10020000187C7C080404084854545420043F44409B
:10021000203C4040207C1C2040201C3C4030403C86
:1002200044281028440C5050503C4464544C440022
:100230000836410000007F00000041360800100829
:10024000081008000000000011241FBECFEFD8E006
:10025000DEBFCDBF11E0A0E0B1E0E2E3F7E102C014
:1002600005900D92AE33B107D9F723E0AEE3B1E0CC
:1002700001C01D92A438B207E1F70E9463060C94F6
:10028000970B0C9400006F927F928F929F92AF9287
:10029000BF92CF92DF92EF92FF920F931F93CF9373
:1002A000DF93CDB7DEB75C018D889E88EF88F88C30
:1002B000C98CDA8CC557DF4F08811981CB58D040E3
:1002C000C356DF4F68807980CD59D0400E94E80343
:1002D0006B8989890E94DD0462E082E00E94220429
:1002E00021E0C216D10409F07FC06E2D882D0E9436
:1002F000DD0462E083E00E94220488E0E816F10455
:100300007CF094E1E916F10474F0A0E2EA16F1043D
:100310006CF0B0E2EB16F10461F483E090E00BC006
:1003200080E090E008C081E090E005C082E090E0CD
:1003300002C08FEF9FEFE4E48E16910439F0F8E3EA
:100340008F16910431F461E070E005C060E070E068
:1003500002C06FEF7FEF9E012F5E3F4F40E050E005
:10036000401751070CF040C0D9015496ED91FC9113
:1003700055976E177F0799F55696ED91FC91579713
:100380008E179F0761F50150110979016A01C016A6
:10039000D1068CF4BFEFCB1ADB0AEEE09E2EF701FC
:1003A0007896D7011A9601900D929A94E1F7EEE0B3
:1003B000EE0EF11CECCF10923E0110923F01109214
:1003C000400110924101109242011092430110929B
:1003D000440110924501612C712CC12CD12C4F5F2E
:1003E0005F4F225F3F4FBCCFCE0141967C01812CF5
:1003F000912C801691069CF4D7011C966C911C9749
:100400001A968C910E94DD0462E084E00E9422042E
:10041000BFEF8B1A9B0AEEE0EE0EF11CEACF0E94B2
:10042000E204DA8EC98EC557DF4F19830883CB5893
:10043000D040C356DF4F79826882CD59D0408EE8D4
:10044000FE017196D50101900D928A95E1F7C501E3
:10045000DF91CF911F910F91FF90EF90DF90CF90A0
:10046000BF90AF909F908F907F906F9008954F9224
:100470005F926F927F928F929F92AF92BF92CF9234
:10048000DF92EF92FF920F931F93CF93DF93CDB73D
:10049000DEB75C01C357DF4FC880D980CD58D0404C
:1004A00080E090E00E945006CB010E94610B28E0A2
:1004B000C216D1040CF08EC00E945C0B62E070E0AA
:1004C0000E94E2088C0124EF20037001219FF00CB0
:1004D000112434E4E30EF11C0E945C0B64E070E034
:1004E0000E94E2082CE0289FA001299F500D1124B2
:1004F00020E030E06EE0462E72E0672E712CE4E0E2
:100500008E2E912CFCE05F2E2C153D059CF5429E15
:10051000F001439EF00D112463E170E06C0F7D1F2C
:10052000E60FF71F648575854617570701F5628545
:1005300073856E157F05D9F40E945C0BB3010E9490
:10054000E2088C0174EF70037001719FF00C1124AC
:1005500084E4E80EF11C0E945C0BB4010E94E208E6
:10056000589EA001599E500D112420E030E02F5FCD
:100570003F4FCACF2EE02C9DF0012D9DF00D112490
:100580003A9623E130E02C0F3D1FE20FF31FF1827A
:10059000E0825383428311861086138702879587F2
:1005A0008487F801EE0FFF1FEE0FFF1FE80FF91F02
:1005B000FE96EE0FFF1FE20FF31F81E090E09183A4
:1005C00080833FEFC31AD30AC357DF4FD982C88253
:1005D000CD58D0408EE8FE017396D50101900D9262
:1005E0008A95E1F7C501DF91CF911F910F91FF909F
:1005F000EF90DF90CF90BF90AF909F908F907F90C3
:100600006F905F904F9008950F931F93CF93DF9358
:10061000CDB7DEB78C0189859A8528E030E03C872C
:100620002B879E878D8781E090E0988B8F878DB791
:100630009EB78E5891090FB6F8949EBF0FBE8DBF1E
:10064000ADB7BEB711968EE8FE01379601900D92B8
:100650008A95E1F7CE0107960E9443018EE8FE01DC
:100660003796D80101900D928A95E1F70FB6F8946C
:10067000DEBF0FBECDBFC801DF91CF911F910F919B
:1006800008950F931F93CF93DF93EC018B010E948A
:10069000E803602F8C2F0E94DD0462E082E00E945C
:1006A00022040E94E2042FEF81EE94E0215080406A
:1006B0009040E1F700C00000DF91CF911F910F91B2
:1006C00008951F920F920FB60F9211248F939F934C
:1006D000AF93BF938091420190914301A091440157
:1006E000B09145010196A11DB11D809342019093E7
:1006F0004301A0934401B0934501BF91AF919F91F5
:100700008F910F900FBE0F901F9018952998662318
:1007100011F02B9A01C02B9827E030E090E0AC015B
:10072000022E02C0559547950A94E2F740FF02C099
:100730002C9A01C02C982D9A2D982150310978F7C8
:10074000299A089560E00C948603CF93DF93219A51
:10075000229A239A249A259A2A9A299A8FE39CE925
:100760000197F1F700C000002A989FEF2AE683E086
:10077000915020408040E1F700C000002A9A29985B
:1007800081E20E94A20383E10E94A20386E00E940C
:10079000A20382EC0E94A20380E20E94A20389E0ED
:1007A0000E94A20380E80E94A20380E40E94A203A8
:1007B000C8EFD1E061E080E00E9486032197D1F785
:1007C00088E00E94A2038CE0DF91CF910C94A203F9
:1007D00080E80E94A20380E40E94A20310923E03DC
:1007E00010923F0388EF91E0E6E4F1E0DF019C0125
:1007F0001D9221503040E1F70895811102C084E23A
:1008000001C080E20C94A203962F9695969596953A
:10081000E82FF0E084E5989FE00DF11D1124EA5BDC
:10082000FE4F677081E090E001C0880F6A95EAF79B
:10083000442319F09081892B03C0809590818923EE
:10084000808308958F929F92AF92BF92DF92EF9232
:10085000FF920F931F93CF93DF9300D000D01F928E
:10086000CDB7DEB7F62E282F082E000C330B8032C2
:100870006CF02052310985E0829FB001839F700D9A
:10088000112468597F4F45E050E00EC0220F331FFE
:10089000F901E05CFC4F008111810115110559F44B
:1008A00045E050E068E670E0CE0101960E946C0BD6
:1008B0008E010F5F1F4F85E0F89E5001112497E0D5
:1008C000F99E40011124D12C8D2D90E08A159B05B5
:1008D00044F5E12C8E2D90E08815990504F58D2DB9
:1008E0006F2D0E94D608F801E80FF11D208130E03D
:1008F0008E2D0E94D60802C0359527958A95E2F77D
:1009000060913F0380913E036E0D20FF02C041E0E5
:1009100001C040E08D0D0E940404E394DBCFD3942A
:10092000D3CF80913E0391E0980F8F2D880F880FD1
:100930008F0D890F843518F480933E030BC01092FD
:100940003E0380913F038F5F97E0F99E800D112455
:1009500080933F0380913F03803320F010923E0349
:1009600010923F030F900F900F900F900F90DF9118
:10097000CF911F910F91FF90EF90DF90BF90AF90BC
:100980009F908F90089580323CF4E82FEE0FFF0B7C
:10099000E05CFC4F7183608308951F93CF93DF93D6
:1009A000162FEC018991882321F0612F0E942204E7
:1009B000F9CFDF91CF911F91089580933E0360930B
:1009C0003F030895CF93DF9380E80E94A20380E461
:1009D0000E94A203C6E4D1E061E089910E948603EF
:1009E00083E0CE33D807C1F7DF91CF9108954F92BE
:1009F0005F926F927F928F929F92AF92BF92CF92AF
:100A0000DF92EF92FF92CF93DF93CDB7DEB72E97B1
:100A10000FB6F894DEBF0FBECDBF8D876987F22E6B
:100A2000642F70E0681B7109072E000C880B990B6E
:100A30000E945B0A4B015C016F2D70E02985621BEF
:100A40007109072E000C880B990B0E945B0A6B0141
:100A50007C0124013501E89477F8DC01CB01BF77F4
:100A600089839A83AB83BC839C01AD01C301B2012E
:100A70000E94E70A87FF04C049805A806B807C800F
:100A8000A3019201C501B4010E94B80969837A8368
:100A90008B839C83A3019201C701B6010E94B80910
:100AA0006D837E838F839887AD856A2F70E080E0A9
:100AB00090E00E94590A6B017C01B9856B2F70E0B0
:100AC00080E090E00E94590A4B015C0121E030E097
:100AD0003E872D87AD85BE85BD01BB0F880B990B69
:100AE0000E945B0A9B01AC01C301B2010E94E70AAC
:100AF00087FD2CC0C501B4010E942A0A69877A8744
:100B00008B879C87C701B6010E942A0ADC01CB01B2
:100B100041E069850E94040429813A814B815C810E
:100B2000C701B6010E944C096B017C012D813E81F9
:100B30004F815885C501B4010E944C094B015C01ED
:100B40008D859E8501969E878D87C4CF2E960FB684
:100B5000F894DEBF0FBECDBFDF91CF91FF90EF9035
:100B6000DF90CF90BF90AF909F908F907F906F90CD
:100B70005F904F9008950F931F93CF93DF93C82FEB
:100B8000162F042FD22F262F0E94F7042D2F402F2F
:100B9000612F802F0E94F7042D2F4C2F6D2F802F57
:100BA0000E94F704212F4C2F6D2F8C2FDF91CF91B6
:100BB0001F910F910C94F7047F928F929F92AF92A6
:100BC000BF92CF92DF92EF92FF920F931F93CF933A
:100BD000DF93D82EC62EC42FD0E0E12CF12C00E0FC
:100BE00010E041E0AC2CA00E6A2DBC2EBD0C8B2D6C
:100BF0000E94040441E08C2E8C0C682D9D2C900EDC
:100C0000892D0E94040441E0682D7D2C701A872DE7
:100C10000E94040441E06A2D8D2C8C1A882D0E94BC
:100C2000040441E0AC2CA01A6A2D882D0E94040413
:100C300041E08C2C8C1A682D872D0E94040441E021
:100C4000682D892D0E94040441E06A2D8B2D0E949D
:100C500004041E141F045CF00F5F1F4FC801880FAF
:100C6000991F0196E80EF91E1E141F043CF42197EB
:100C7000CE01880F991F0196E81AF90AC017D1070B
:100C80000CF0AFCFDF91CF911F910F91FF90EF90BC
:100C9000DF90CF90BF90AF909F908F907F900895FE
:100CA000FC010FB6F89460918003709181038091EC
:100CB0008203909183030FBE309721F0608371838C
:100CC000828393830895CF93DF93CDB7DEB7CB5262
:100CD000D1400FB6F894DEBF0FBECDBF0E94A50372
:100CE0000E94E803569857982098389A85E0E9E0E2
:100CF000F1E0DE01A756BF4F01900D928A95E1F712
:100D0000BE0167567F4F82E00E94C30485E0EEE09B
:100D1000F1E0DE01AC56BF4F01900D928A95E1F7EC
:100D2000BE016C567F4F83E00E94C30485E0E3E17F
:100D3000F1E0DE01A157BF4F01900D928A95E1F7D6
:100D4000BE0161577F4F84E00E94C304F894109263
:100D50008000109281001092850010928400109201
:100D600089001092880080918100886080938100C2
:100D70008091810085608093810080916F00826006
:100D800080936F00419A78941A82198218861F8284
:100D9000ED961FAE1EAEED9710923E0110923F01F0
:100DA000109240011092410161E088E191E00E94BF
:100DB000CD046CE080E00E94DD0461E089E291E016
:100DC0000E94CD040E94E2044F9904C04E9902C0D3
:100DD000189BFACFE12CF12CA12CB12CC12CD12CD9
:100DE00000E010E0412C512C32014394609142010B
:100DF00070914301809144019091450128EC3FEAB4
:100E000040E050E00E94F608672B682B692BA1F5A3
:100E10001C830B83DE82CD82BA86A986C357DF4F3F
:100E2000F982E882CD58D0408DB79EB78E5891098F
:100E30000FB6F8949EBF0FBE8DBFADB7BEB711966B
:100E40008EE8FE01319601900D928A95E1F7CE0170
:100E500001960E9437020B811C81CD80DE80A9841F
:100E6000BA84C357DF4FE880F980CD58D0400FB621
:100E7000F894DEBF0FBECDBF4F9B4DC000321105B1
:100E800011F00C5F1F4F1C830B83DE82CD82BA866C
:100E9000A986C357DF4FF982E882CD58D0408DB77D
:100EA0009EB78E5891090FB6F8949EBF0FBE8DBFA6
:100EB000ADB7BEB711968EE8FE01319601900D9246
:100EC0008A95E1F7CE0182569F4F0E9443018EE83A
:100ED000FE01E256FF4FDE01119601900D928A95B8
:100EE000E1F70B811C81CD80DE80A984BA84C357D1
:100EF000DF4FE880F980CD58D0409FEF21EE84E0AD
:100F0000915020408040E1F700C000000FB6F894F7
:100F1000DEBF0FBECDBF4E9B4DC00115110511F0B8
:100F2000045011091C830B83DE82CD82BA86A98608
:100F3000C357DF4FF982E882CD58D0408DB79EB7B6
:100F40008E5891090FB6F8949EBF0FBE8DBFADB7F6
:100F5000BEB711968EE8FE01319601900D928A95EA
:100F6000E1F7CE0182569F4F0E9443018EE8FE01B9
:100F7000E256FF4FDE01119601900D928A95E1F73E
:100F80000B811C81CD80DE80A984BA84C357DF4FDA
:100F9000E880F980CD58D0409FEF21EE84E0915059
:100FA00020408040E1F700C000000FB6F894DEBF9B
:100FB0000FBECDBF189B54C0A114B10409F050C09E
:100FC0001C830B83DE82CD821A861986C357DF4FBE
:100FD000F982E882CD58D0408DB79EB78E589109DE
:100FE0000FB6F8949EBF0FBE8DBFADB7BEB71196BA
:100FF0008EE8FE01319601900D928A95E1F7CE01BF
:1010000082569F4F0E9404038EE8FE01E256FF4F76
:10101000DE01119601900D928A95E1F70B811C81FA
:10102000CD80DE80A984BA84C357DF4FE880F98081
:10103000CD58D0409FEF21EE84E091502040804079
:10104000E1F700C0000040923E0150923F016092E3
:101050004001709241010FB6F894DEBF0FBECDBFC4
:1010600080913E0190913F01A0914001B0914101DA
:10107000181619061A061B06ECF4409A40913E0118
:1010800050913F0160914001709141018091420176
:1010900090914301A0914401B0914501840F951FA7
:1010A000A61FB71F80933E0190933F01A09340017C
:1010B000B093410180913E0190913F01A091400188
:1010C000B0914101883B9B40A105B1050CF48ECE47
:1010D00081E0A816B10409F089CE94E0C90ED11CB4
:1010E0002FEFE21AF20A84E1E816F10459F0409277
:1010F0003E0150923F01609240017092410181E0B7
:1011000090E014C010923E0110923F0110924001F5
:101110001092410110924201109243011092440139
:1011200010924501E12CF12C80E090E01C830B83B0
:10113000DE82CD829A878987C357DF4FF982E882A2
:10114000CD58D0408DB79EB78E5891090FB6F89400
:101150009EBF0FBE8DBFADB7BEB711968EE8FE0124
:10116000319601900D928A95E1F7CE0182569F4FFC
:101170000E9443018EE8FE01E256FF4FDE01119608
:1011800001900D928A95E1F70B811C81CD80DE8064
:10119000A984BA84C357DF4FE880F980CD58D04086
:1011A0000FB6F894DEBF0FBECDBF20CE991B79E0FD
:1011B00004C0991F961708F0961B881F7A95C9F7E7
:1011C0008095089597FB072E16F4009407D077FDBD
:1011D00009D00E94150907FC05D03EF49095819531
:1011E0009F4F0895709561957F4F0895052E97FB49
:1011F0001EF400940E940D0957FD07D00E94290992
:1012000007FC03D04EF40C940D0950954095309591
:1012100021953F4F4F4F5F4F089590958095709562
:1012200061957F4F8F4F9F4F0895AA1BBB1B51E1C4
:1012300007C0AA1FBB1FA617B70710F0A61BB70B46
:10124000881F991F5A95A9F780959095BC01CD01EB
:101250000895A1E21A2EAA1BBB1BFD010DC0AA1FF7
:10126000BB1FEE1FFF1FA217B307E407F50720F00F
:10127000A21BB30BE40BF50B661F771F881F991F8A
:101280001A9469F760957095809590959B01AC01D3
:10129000BD01CF0108955058BB27AA270E946309BA
:1012A0000C94AD0A0E949F0A38F00E94A60A20F012
:1012B00039F49F3F19F426F40C949C0A0EF4E0953F
:1012C000E7FB0C94960AE92F0E94BE0A58F3BA175E
:1012D000620773078407950720F079F4A6F50C944C
:1012E000E00A0EF4E0950B2EBA2FA02D0B01B901E8
:1012F00090010C01CA01A0011124FF27591B99F08C
:10130000593F50F4503E68F11A16F040A22F232F97
:10131000342F4427585FF3CF469537952795A795E7
:10132000F0405395C9F77EF41F16BA0B620B730B8E
:10133000840BBAF09150A1F0FF0FBB1F661F771FFF
:10134000881FC2F70EC0BA0F621F731F841F48F4B4
:10135000879577956795B795F7959E3F08F0B0CF3D
:101360009395880F08F09927EE0F97958795089524
:101370000E94CC090C94AD0A0E94A60A58F00E9463
:101380009F0A40F029F45F3F29F00C94960A51110E
:101390000C94E10A0C949C0A0E94BE0A68F39923FB
:1013A000B1F3552391F3951B550BBB27AA27621761
:1013B0007307840738F09F5F5F4F220F331F441F6E
:1013C000AA1FA9F335D00E2E3AF0E0E832D09150A2
:1013D0005040E695001CCAF72BD0FE2F29D0660F8F
:1013E000771F881FBB1F261737074807AB07B0E8D2
:1013F00009F0BB0B802DBF01FF2793585F4F3AF0D8
:101400009E3F510578F00C94960A0C94E10A5F3FD8
:10141000E4F3983ED4F3869577956795B795F7955D
:101420009F5FC9F7880F911D9695879597F9089545
:10143000E1E0660F771F881FBB1F621773078407E1
:10144000BA0720F0621B730B840BBA0BEE1F88F7F0
:10145000E09508950E94C60A88F09F5798F0B92F2A
:101460009927B751B0F0E1F0660F771F881F991FD9
:101470001AF0BA95C9F714C0B13091F00E94E00A91
:10148000B1E008950C94E00A672F782F8827B85FA1
:1014900039F0B93FCCF3869577956795B395D9F731
:1014A0003EF490958095709561957F4F8F4F9F4F3B
:1014B0000895E89409C097FB3EF490958095709547
:1014C00061957F4F8F4F9F4F9923A9F0F92F96E990
:1014D000BB279395F695879577956795B795F11105
:1014E000F8CFFAF4BB0F11F460FF1BC06F5F7F4FA2
:1014F0008F4F9F4F16C0882311F096E911C07723B4
:1015000021F09EE8872F762F05C0662371F096E8BC
:10151000862F70E060E02AF09A95660F771F881F8B
:10152000DAF7880F9695879597F9089597F99F6749
:1015300080E870E060E008959FEF80EC089500245B
:101540000A941616170618060906089500240A9428
:1015500012161306140605060895092E0394000CAE
:1015600011F4882352F0BB0F40F4BF2B11F460FF3D
:1015700004C06F5F7F4F8F4F9F4F089557FD905866
:10158000440F551F59F05F3F71F04795880F97FB47
:10159000991F61F09F3F79F0879508951216130601
:1015A0001406551FF2CF4695F1DF08C01616170630
:1015B0001806991FF1CF8695710561050894089565
:1015C000E894BB2766277727CB0197F908950E94F7
:1015D000EC0A08F48FEF0895990F0008550FAA0B35
:1015E000E0E8FEEF16161706E807F907C0F0121636
:1015F0001306E407F50798F0621B730B840B950B39
:1016000039F40A2661F0232B242B252B21F408958D
:101610000A2609F4A140A6958FEF811D811D08952A
:101620008F929F92AF92BF92CF92DF92EF92FF92F2
:10163000CF93DF93EC01688179818A819B81611569
:1016400071058105910521F464E279ED8BE597E060
:101650002DE133EF41E050E00E94F60849015A01C4
:101660009B01AC01A7EAB1E40E94750B6B017C0100
:10167000ACEEB4EFA50194010E94830BDC01CB0119
:101680008C0D9D1DAE1DBF1DB7FF03C00197A109A5
:10169000B04888839983AA83BB839F77DF91CF91DA
:1016A000FF90EF90DF90CF90BF90AF909F908F9082
:1016B00008950E94100B089585E091E00E94100BA0
:1016C0000895A0E0B0E08093050190930601A093F7
:1016D0000701B09308010895FB01DC0102C00590E9
:1016E0000D9241505040D8F708950E94880BA59F55
:1016F000900DB49F900DA49F800D911D112408950D
:10170000B7FF0C94750B0E94750B821B930B089509
:10171000A29FB001B39FC001A39F700D811D112432
:10172000911DB29F700D811D1124911D0895F89493
:02173000FFCFE9
:101732001024E02410010000005D77140808080856
:1017420008080811150A0E11446566656E64612069
:101752006120546572726121004170657274652066
:0E1762007061726120436F6D65C3A7617200F4
:00000001FF
