:100000000C9424010C9441010C9441010C94410185
:100010000C9441010C9441010C9441010C94410158
:100020000C9441010C9441010C9441010C94120276
:100030000C9441010C9441010C9441010C94410138
:100040000C9441010C9441010C9441010C94410128
:100050000C9441010C9441010C9441010C94410118
:100060000C9441010C944101000000000000005F6D
:1000700000000007000700147F147F14242A7F2A41
:10008000122313086462364955225000050300000C
:10009000001C2241000041221C0014083E081408E4
:1000A000083E0808005030000008080808080060F2
:1000B00060000020100804023E5149453E00427F86
:1000C000400042615149462141454B311814127F8D
:1000D0001027454545393C4A494930017109050316
:1000E0003649494936064949291E0036360000007E
:1000F0005636000008142241001414141414004150
:100100002214080201510906324979413E7E11113B
:10011000117E7F494949363E414141227F4141227A
:100120001C7F494949417F090909013E4149497AF2
:100130007F0808087F00417F41002040413F017F48
:10014000081422417F404040407F020C027F7F0420
:1001500008107F3E4141413E7F090909063E415159
:10016000215E7F09192946464949493101017F012C
:10017000013F4040403F1F2040201F3F4038403F4C
:100180006314081463070870080761514945430068
:100190007F41410002040810200041417F00040219
:1001A0000102044040404040000102040020545439
:1001B00054787F48444438384444442038444448C0
:1001C0007F3854545418087E0901020C5252523E92
:1001D0007F0804047800447D40002040443D007FB7
:1001E0001028440000417F40007C041804787C08FB
:1001F00004047838444444387C1414140808141453
:10020000187C7C080404084854545420043F44409B
:10021000203C4040207C1C2040201C3C4030403C86
:1002200044281028440C5050503C4464544C440022
:100230000836410000007F00000041360800100829
:10024000081008000000000011241FBECFEFD8E006
:10025000DEBFCDBF11E0A0E0B1E0E0EEFEE002C005
:1002600005900D92A031B107D9F723E0A0E1B1E0EC
:1002700001C01D92AA34B207E1F70E94E6040C9473
:100280006E070C9400000F931F93CF93DF93CDB7AD
:10029000DEB72A970FB6F894DEBF0FBECDBF098335
:1002A0002B834D836F8389879A870E947E026B819F
:1002B00089810E94730362E082E00E94B80289850E
:1002C0009A85019741F46F818D810E94730362E0EA
:1002D00083E00E94B8022A960FB6F894DEBF0FBEE4
:1002E000CDBFDF91CF911F910F910C9478030F93A5
:1002F0001F93CF93DF93CDB7DEB72A970FB6F8944D
:10030000DEBF0FBECDBF09831A832B833C8381E000
:1003100090E09A87898728E030E0422F3E832D8342
:100320002B813C81622F38872F832B813C815E811A
:1003300078859A850E9443012FEF8BE792E921503F
:1003400080409040E1F700C000008CE090E0482F32
:100350009E838D8309811A812B813C815E816F810F
:10036000788589859A850E9443012FEF8BE792E972
:10037000215080409040E1F700C0000080E190E013
:10038000482F9E838D8309811A812B813C815E8158
:100390006F81788589859A850E9443012FEF8BE7CD
:1003A00092E9215080409040E1F700C0000084E1D4
:1003B00090E0482F9E838D8309811A812B813C8197
:1003C0005E816F81788589859A850E9443012A968E
:1003D0000FB6F894DEBF0FBECDBFDF91CF911F9156
:1003E0000F9108950F931F93CF93DF93EC018B012F
:1003F0000E947E02602F8C2F0E94730362E082E0D5
:100400000E94B8020E9478032FEF81EE94E0215001
:1004100080409040E1F700C00000DF91CF911F9134
:100420000F9108951F920F920FB60F9211240F9003
:100430000FBE0F901F9018952998662311F02B9AE4
:1004400001C02B9827E030E090E0AC01022E02C002
:10045000559547950A94E2F740FF02C02C9A01C0D7
:100460002C982D9A2D982150310978F7299A0895C2
:1004700060E00C941C02CF93DF93219A229A239A76
:10048000249A259A2A9A299A8FE39CE90197F1F7F1
:1004900000C000002A989FEF2AE683E09150204098
:1004A0008040E1F700C000002A9A299881E20E946A
:1004B000380283E10E94380286E00E94380282EC12
:1004C0000E94380280E20E94380289E00E943802CD
:1004D00080E80E94380280E40E943802C8EFD1E030
:1004E00061E080E00E941C022197D1F788E00E9421
:1004F00038028CE0DF91CF910C94380280E80E94A2
:10050000380280E40E943802109208031092090316
:1005100088EF91E0E0E1F1E0DF019C011D922150C4
:100520003040E1F70895811102C084E201C080E209
:100530000C943802962F969596959695E82FF0E0B4
:1005400084E5989FE00DF11D1124E05FFE4F677078
:1005500081E090E001C0880F6A95EAF7442319F022
:100560009081892B03C08095908189238083089591
:100570008F929F92AF92BF92DF92EF92FF920F9372
:100580001F93CF93DF9300D000D01F92CDB7DEB77B
:10059000F62E282F082E000C330B80326CF02052E0
:1005A000310985E0829FB001839F700D1124685945
:1005B0007F4F45E050E00EC0220F331FF901E65F88
:1005C000FC4F008111810115110559F445E050E0FF
:1005D00068E670E0CE0101960E9465078E010F5F0C
:1005E0001F4F85E0F89E5001112497E0F99E4001CD
:1005F0001124D12C8D2D90E08A159B0544F5E12C1A
:100600008E2D90E08815990504F58D2D6F2D0E9493
:100610009405F801E80FF11D208130E08E2D0E9435
:10062000940502C0359527958A95E2F760910903F4
:10063000809108036E0D20FF02C041E001C040E040
:100640008D0D0E949A02E394DBCFD394D3CF809197
:10065000080391E0980F8F2D880F880F8F0D890F59
:10066000843518F4809308030BC01092080380911E
:1006700009038F5F97E0F99E800D11248093090391
:1006800080910903803320F010920803109209032F
:100690000F900F900F900F900F90DF91CF911F91BF
:1006A0000F91FF90EF90DF90BF90AF909F908F9051
:1006B000089580323CF4E82FEE0FFF0BE65FFC4F0D
:1006C0007183608308951F93CF93DF93162FEC01FE
:1006D0008991882321F0612F0E94B802F9CFDF9120
:1006E000CF911F91089580930803609309030895A3
:1006F000CF93DF9380E80E94380280E40E943802A2
:10070000C0E1D1E061E089910E941C0283E0C83021
:10071000D807C1F7DF91CF9108954F925F926F9202
:100720007F928F929F92AF92BF92CF92DF92EF9281
:10073000FF92CF93DF93CDB7DEB72E970FB6F89425
:10074000DEBF0FBECDBF8D876987F22E642F70E0AC
:10075000681B7109072E000C880B990B0E94B006CC
:100760004B015C016F2D70E02985621B7109072E1A
:10077000000C880B990B0E94B0066B017C012401D0
:100780003501E89477F8DC01CB01BF7789839A8340
:10079000AB83BC839C01AD01C301B2010E943C0745
:1007A00087FF04C049805A806B807C80A30192013E
:1007B000C501B4010E940D0669837A838B839C83F3
:1007C000A3019201C701B6010E940D066D837E83CD
:1007D0008F839887AD856A2F70E080E090E00E945B
:1007E000AE066B017C01B9856B2F70E080E090E074
:1007F0000E94AE064B015C0121E030E03E872D8770
:10080000AD85BE85BD01BB0F880B990B0E94B0065C
:100810009B01AC01C301B2010E943C0787FD2CC0C3
:10082000C501B4010E947F0669877A878B879C8700
:10083000C701B6010E947F06DC01CB0141E069855A
:100840000E949A0229813A814B815C81C701B601DD
:100850000E94A1056B017C012D813E814F8158854D
:10086000C501B4010E94A1054B015C018D859E85E7
:1008700001969E878D87C4CF2E960FB6F894DEBF63
:100880000FBECDBFDF91CF91FF90EF90DF90CF9063
:10089000BF90AF909F908F907F906F905F904F90A0
:1008A00008950F931F93CF93DF93C82F162F042F14
:1008B000D22F262F0E948D032D2F402F612F802FA6
:1008C0000E948D032D2F4C2F6D2F802F0E948D03A2
:1008D000212F4C2F6D2F8C2FDF91CF911F910F91D6
:1008E0000C948D037F928F929F92AF92BF92CF9282
:1008F000DF92EF92FF920F931F93CF93DF93D82E47
:10090000C62EC42FD0E0E12CF12C00E010E041E035
:10091000AC2CA00E6A2DBC2EBD0C8B2D0E949A0211
:1009200041E08C2E8C0C682D9D2C900E892D0E9400
:100930009A0241E0682D7D2C701A872D0E949A0240
:1009400041E06A2D8D2C8C1A882D0E949A0241E07C
:10095000AC2CA01A6A2D882D0E949A0241E08C2CA2
:100960008C1A682D872D0E949A0241E0682D892DEE
:100970000E949A0241E06A2D8B2D0E949A021E1459
:100980001F045CF00F5F1F4FC801880F991F01966D
:10099000E80EF91E1E141F043CF42197CE01880FA7
:1009A000991F0196E81AF90AC017D1070CF0AFCFCA
:1009B000DF91CF911F910F91FF90EF90DF90CF903B
:1009C000BF90AF909F908F907F900895CF93DF93CB
:1009D000CDB7DEB764970FB6F894DEBF0FBECDBFBC
:1009E0000E943B020E947E0260E071E081E00E9472
:1009F000590356985798209885E0E5E0F1E0DE012C
:100A0000509601900D928A95E1F785E0EAE0F1E0D9
:100A1000DE011B9601900D928A95E1F7F8941092F1
:100A20008000109281001092850010928400109234
:100A300089001092880080918100886080938100F5
:100A40008091810085608093810080916F00826039
:100A500080936F00419A7894BE01605F7F4F82E07F
:100A60000E945903BE01655F7F4F83E00E945903D6
:100A70001A8219821E821D8218861F8281E090E0F0
:100A80009A878987E12CF12C4F9B1EC020E2E21649
:100A9000F10419F084E0E80EF11C2E2DFC82EB82AB
:100AA00009811A813C814D815E816F8178858985BC
:100AB0009A850E9443019FEF21EE84E091502040EF
:100AC0008040E1F700C000004E9B1DC0E114F1041E
:100AD00019F094E0E91AF1082E2DFC82EB820981CD
:100AE0001A813C814D815E816F81788589859A85E7
:100AF0000E9443012FEF81EE94E02150804090400E
:100B0000E1F700C00000189BBFCF2E2DFC82EB82C6
:100B100009811A813C814D815E816F81788589854B
:100B20009A850E947701B0CF991B79E004C0991F84
:100B3000961708F0961B881F7A95C9F78095089537
:100B40005058BB27AA270E94B8050C9402070E94A0
:100B5000F40638F00E94FB0620F039F49F3F19F4A8
:100B600026F40C94F1060EF4E095E7FB0C94EB06EA
:100B7000E92F0E94130758F3BA1762077307840717
:100B8000950720F079F4A6F50C9435070EF4E0955E
:100B90000B2EBA2FA02D0B01B90190010C01CA0137
:100BA000A0011124FF27591B99F0593F50F4503EE2
:100BB00068F11A16F040A22F232F342F4427585FD4
:100BC000F3CF469537952795A795F0405395C9F7EC
:100BD0007EF41F16BA0B620B730B840BBAF09150A4
:100BE000A1F0FF0FBB1F661F771F881FC2F70EC043
:100BF000BA0F621F731F841F48F487957795679516
:100C0000B795F7959E3F08F0B0CF9395880F08F001
:100C10009927EE0F9795879508950E9421060C94C9
:100C200002070E94FB0658F00E94F40640F029F4E7
:100C30005F3F29F00C94EB0651110C9436070C948D
:100C4000F1060E94130768F39923B1F3552391F33A
:100C5000951B550BBB27AA2762177307840738F02B
:100C60009F5F5F4F220F331F441FAA1FA9F335D088
:100C70000E2E3AF0E0E832D091505040E695001C3C
:100C8000CAF72BD0FE2F29D0660F771F881FBB1FF6
:100C9000261737074807AB07B0E809F0BB0B802DD4
:100CA000BF01FF2793585F4F3AF09E3F510578F000
:100CB0000C94EB060C9436075F3FE4F3983ED4F3B4
:100CC000869577956795B795F7959F5FC9F7880FD4
:100CD000911D9695879597F90895E1E0660F771F26
:100CE000881FBB1F621773078407BA0720F0621BB7
:100CF000730B840BBA0BEE1F88F7E09508950E94E2
:100D00001B0788F09F5798F0B92F9927B751B0F07B
:100D1000E1F0660F771F881F991F1AF0BA95C9F77F
:100D200014C0B13091F00E943507B1E008950C94E1
:100D30003507672F782F8827B85F39F0B93FCCF394
:100D4000869577956795B395D9F73EF490958095FC
:100D5000709561957F4F8F4F9F4F0895E89409C01C
:100D600097FB3EF490958095709561957F4F8F4FDE
:100D70009F4F9923A9F0F92F96E9BB279395F695F4
:100D8000879577956795B795F111F8CFFAF4BB0F72
:100D900011F460FF1BC06F5F7F4F8F4F9F4F16C0D6
:100DA000882311F096E911C0772321F09EE8872F60
:100DB000762F05C0662371F096E8862F70E060E01C
:100DC0002AF09A95660F771F881FDAF7880F969595
:100DD000879597F9089597F99F6780E870E060E03C
:100DE00008959FEF80EC089500240A9416161706C4
:100DF00018060906089500240A941216130614060C
:100E000005060895092E0394000C11F4882352F06E
:100E1000BB0F40F4BF2B11F460FF04C06F5F7F4F26
:100E20008F4F9F4F089557FD9058440F551F59F00D
:100E30005F3F71F04795880F97FB991F61F09F3FC7
:100E400079F087950895121613061406551FF2CFF0
:100E50004695F1DF08C0161617061806991FF1CF40
:100E600086957105610508940895E894BB27662767
:100E70007727CB0197F908950E94410708F48FEF77
:100E80000895990F0008550FAA0BE0E8FEEF16161B
:100E90001706E807F907C0F012161306E407F5076E
:100EA00098F0621B730B840B950B39F40A2661F0E2
:100EB000232B242B252B21F408950A2609F4A14085
:100EC000A6958FEF811D811D0895FB01DC0102C0F5
:100ED00005900D9241505040D8F70895F894FFCFF7
:100EE0001024E024105D771408087F7F1C7F7F00AA
:00000001FF
