:100000000C9424010C9441010C9441010C94410185
:100010000C9441010C9441010C9441010C94410158
:100020000C9441010C9441010C9441010C94B702D1
:100030000C9441010C9441010C9441010C94410138
:100040000C9441010C9441010C9441010C94410128
:100050000C9441010C9441010C9441010C94410118
:100060000C9441010C944101000000000000005F6D
:1000700000000007000700147F147F14242A7F2A41
:10008000122313086462364955225000050300000C
:10009000001C2241000041221C0014083E081408E4
:1000A000083E0808005030000008080808080060F2
:1000B00060000020100804023E5149453E00427F86
:1000C000400042615149462141454B311814127F8D
:1000D0001027454545393C4A494930017109050316
:1000E0003649494936064949291E0036360000007E
:1000F0005636000008142241001414141414004150
:100100002214080201510906324979413E7E11113B
:10011000117E7F494949363E414141227F4141227A
:100120001C7F494949417F090909013E4149497AF2
:100130007F0808087F00417F41002040413F017F48
:10014000081422417F404040407F020C027F7F0420
:1001500008107F3E4141413E7F090909063E415159
:10016000215E7F09192946464949493101017F012C
:10017000013F4040403F1F2040201F3F4038403F4C
:100180006314081463070870080761514945430068
:100190007F41410002040810200041417F00040219
:1001A0000102044040404040000102040020545439
:1001B00054787F48444438384444442038444448C0
:1001C0007F3854545418087E0901020C5252523E92
:1001D0007F0804047800447D40002040443D007FB7
:1001E0001028440000417F40007C041804787C08FB
:1001F00004047838444444387C1414140808141453
:10020000187C7C080404084854545420043F44409B
:10021000203C4040207C1C2040201C3C4030403C86
:1002200044281028440C5050503C4464544C440022
:100230000836410000007F00000041360800100829
:10024000081008000000000011241FBECFEFD8E006
:10025000DEBFCDBF11E0A0E0B1E0EEE9F2E102C007
:1002600005900D92A831B107D9F723E0A8E1B1E0DC
:1002700001C01D92A635B207E1F70E949E050C94BD
:100280004D090C940000EF92FF920F931F93CF93B0
:10029000DF93CDB7DEB70E9423036B8589850E946B
:1002A000180462E082E00E945D0389899A890197BF
:1002B00041F46F858D850E94180462E083E00E94FE
:1002C0005D038E01075F1F4FE12CF12C065F1F4F6E
:1002D00061968EAD9FAD6197E816F9066CF4F80152
:1002E000628180810E94180462E084E00E945D03C4
:1002F000FFEFEF1AFF0AEACF0E941D04DF91CF91B2
:100300001F910F91FF90EF900895AF92BF92CF92FF
:10031000DF92EF92FF920F931F93CF93DF93CDB7AE
:10032000DEB77C0165960EAD1FAD659780E090E06D
:100330000E948B05CB010E94D608043011050CF0F9
:1003400050C00E94D10864E070E00E9498064CE022
:10035000489F9001499F300D112480E090E04AE0D1
:10036000B42E54E0C52ED12C6CE0A62E8017910738
:10037000F4F4B89EF001B99EF00D11244DE050E068
:100380004C0F5D1FE40FF51F448555854217530739
:1003900061F40E94D108B6010E949806A89E9001BF
:1003A000A99E300D112480E090E00196DFCF0F5F11
:1003B0001F4F8AE0809FF001819FF00D11248DE096
:1003C00090E08C0F9D1FE80FF91F84E490E091836B
:1003D0008083338322831186108665961FAF0EAF0C
:1003E000659788E4FE013D96D70101900D928A95AC
:1003F000E1F7C701DF91CF911F910F91FF90EF902F
:10040000DF90CF90BF90AF900895AF92BF92CF9200
:10041000DF92EF92FF920F931F93CF93DF93CDB7AD
:10042000DEB77C018DB79EB7885491090FB6F8945A
:100430009EBF0FBE8DBFADB7BEB7119688E4FE015B
:100440003D9601900D928A95E1F7CE010D960E949E
:100450008501AF84B8880FB6F894DEBF0FBECDBF5C
:1004600008E010E0CC24C394D12C1A8B098BBC8AF1
:10047000AB8ADE8ACD8A8DB79EB7885491090FB6B4
:10048000F8949EBF0FBE8DBFADB7BEB7119688E47E
:10049000FE013D9601900D928A95E1F70E9443017D
:1004A0009FEF26E781E0915020408040E1F700C0B7
:1004B00000000C5F1F4F8DB79EB7885B9F4F0FB634
:1004C000F894DEBF0FBECDBF0834110571F61A8B4C
:1004D000098B1E8A1D8A885491090FB6F8949EBF15
:1004E0000FBE8DBFADB7BEB7119688E4FE013D9635
:1004F00001900D928A95E1F70E94430188E4FE0184
:100500003D96D70101900D928A95E1F70FB6F894C8
:10051000DEBF0FBECDBFC701DF91CF911F910F91FD
:10052000FF90EF90DF90CF90BF90AF9008950F9322
:100530001F93CF93DF93EC018B010E942303602F65
:100540008C2F0E94180462E082E00E945D030E94EA
:100550001D042FEF81EE94E0215080409040E1F7A0
:1005600000C00000DF91CF911F910F9108951F925D
:100570000F920FB60F9211240F900FBE0F901F9085
:1005800018952998662311F02B9A01C02B9827E023
:1005900030E090E0AC01022E02C0559547950A94D8
:1005A000E2F740FF02C02C9A01C02C982D9A2D989A
:1005B0002150310978F7299A089560E00C94C1021E
:1005C000CF93DF93219A229A239A249A259A2A9AE2
:1005D000299A8FE39CE90197F1F700C000002A985F
:1005E0009FEF2AE683E0915020408040E1F700C071
:1005F00000002A9A299881E20E94DD0283E10E948C
:10060000DD0286E00E94DD0282EC0E94DD0280E2D3
:100610000E94DD0289E00E94DD0280E80E94DD0286
:1006200080E40E94DD02C8EFD1E061E080E00E943A
:10063000C1022197D1F788E00E94DD028CE0DF91B2
:10064000CF910C94DD0280E80E94DD0280E40E94DC
:10065000DD02109210031092110388EF91E0E8E19F
:10066000F1E0DF019C011D9221503040E1F7089537
:10067000811102C084E201C080E20C94DD02962F59
:10068000969596959695E82FF0E084E5989FE00D75
:10069000F11D1124E85EFE4F677081E090E001C01B
:1006A000880F6A95EAF7442319F09081892B03C0DB
:1006B000809590818923808308958F929F92AF9235
:1006C000BF92DF92EF92FF920F931F93CF93DF932E
:1006D00000D000D01F92CDB7DEB7F62E282F082EFF
:1006E000000C330B80326CF02052310985E0829F80
:1006F000B001839F700D112468597F4F45E050E091
:100700000EC0220F331FF901EE5EFC4F00811181F4
:100710000115110559F445E050E068E670E0CE019E
:1007200001960E94E1088E010F5F1F4F85E0F89E41
:100730005001112497E0F99E40011124D12C8D2DF8
:1007400090E08A159B0544F5E12C8E2D90E08815EC
:10075000990504F58D2D6F2D0E948C06F801E80F88
:10076000F11D208130E08E2D0E948C0602C035954F
:1007700027958A95E2F760911103809110036E0D21
:1007800020FF02C041E001C040E08D0D0E943F0308
:10079000E394DBCFD394D3CF8091100391E0980FF3
:1007A0008F2D880F880F8F0D890F843518F4809353
:1007B00010030BC010921003809111038F5F97E01C
:1007C000F99E800D112480931103809111038033D1
:1007D00020F010921003109211030F900F900F90C1
:1007E0000F900F90DF91CF911F910F91FF90EF909D
:1007F000DF90BF90AF909F908F90089580323CF42F
:10080000E82FEE0FFF0BEE5EFC4F718360830895BF
:100810001F93CF93DF93162FEC018991882321F04A
:10082000612F0E945D03F9CFDF91CF911F91089551
:1008300080931003609311030895CF93DF9380E8B2
:100840000E94DD0280E40E94DD02C8E1D1E061E0A7
:1008500089910E94C10283E0C031D807C1F7DF91BE
:10086000CF9108954F925F926F927F928F929F9255
:10087000AF92BF92CF92DF92EF92FF92CF93DF932E
:10088000CDB7DEB72E970FB6F894DEBF0FBECDBF43
:100890008D876987F22E642F70E0681B7109072E1F
:1008A000000C880B990B0E94D0074B015C016F2D47
:1008B00070E02985621B7109072E000C880B990BCB
:1008C0000E94D0076B017C0124013501E89477F880
:1008D000DC01CB01BF7789839A83AB83BC839C0106
:1008E000AD01C301B2010E945C0887FF04C04980CA
:1008F0005A806B807C80A3019201C501B4010E94E3
:100900002D0769837A838B839C83A3019201C7019E
:10091000B6010E942D076D837E838F839887AD85F6
:100920006A2F70E080E090E00E94CE076B017C01AE
:10093000B9856B2F70E080E090E00E94CE074B01FC
:100940005C0121E030E03E872D87AD85BE85BD018D
:10095000BB0F880B990B0E94D0079B01AC01C30110
:10096000B2010E945C0887FD2CC0C501B4010E9441
:100970009F0769877A878B879C87C701B6010E948A
:100980009F07DC01CB0141E069850E943F0329817B
:100990003A814B815C81C701B6010E94C1066B019F
:1009A0007C012D813E814F815885C501B4010E9493
:1009B000C1064B015C018D859E8501969E878D87C2
:1009C000C4CF2E960FB6F894DEBF0FBECDBFDF9119
:1009D000CF91FF90EF90DF90CF90BF90AF909F901E
:1009E0008F907F906F905F904F9008950F931F931B
:1009F000CF93DF93C82F162F042FD22F262F0E94BC
:100A000032042D2F402F612F802F0E9432042D2F72
:100A10004C2F6D2F802F0E943204212F4C2F6D2FD1
:100A20008C2FDF91CF911F910F910C9432047F9204
:100A30008F929F92AF92BF92CF92DF92EF92FF92EE
:100A40000F931F93CF93DF93D82EC62EC42FD0E0E1
:100A5000E12CF12C00E010E041E0AC2CA00E6A2D5E
:100A6000BC2EBD0C8B2D0E943F0341E08C2E8C0CC4
:100A7000682D9D2C900E892D0E943F0341E0682D2A
:100A80007D2C701A872D0E943F0341E06A2D8D2C2A
:100A90008C1A882D0E943F0341E0AC2CA01A6A2DCD
:100AA000882D0E943F0341E08C2C8C1A682D872DE5
:100AB0000E943F0341E0682D892D0E943F0341E0E1
:100AC0006A2D8B2D0E943F031E141F045CF00F5FE4
:100AD0001F4FC801880F991F0196E80EF91E1E14BA
:100AE0001F043CF42197CE01880F991F0196E81A44
:100AF000F90AC017D1070CF0AFCFDF91CF911F914A
:100B00000F91FF90EF90DF90CF90BF90AF909F90AC
:100B10008F907F900895FC010FB6F8946091520376
:100B20007091530380915403909155030FBE3097F9
:100B300021F060837183828393830895CF93DF9341
:100B4000CDB7DEB7C755D1090FB6F894DEBF0FBEDB
:100B5000CDBF0E94E0020E94230360E071E081E0CB
:100B60000E94FE0356985798209885E0E9E0F1E04E
:100B7000DE01AD5ABF4F01900D928A95E1F7BE019B
:100B80006D5A7F4F82E00E94FE0385E0EEE0F1E0C7
:100B9000DE01A25BBF4F01900D928A95E1F7BE0185
:100BA000625B7F4F83E00E94FE0385E0E3E1F1E0BA
:100BB000DE01A75BBF4F01900D928A95E1F7BE0160
:100BC000675B7F4F84E00E94FE03F89410928000E0
:100BD000109281001092850010928400109289007A
:100BE00010928800809181008860809381008091BC
:100BF000810085608093810080916F008260809386
:100C00006F00419A78941A8219821E821D8218867A
:100C10001F821A86198629961FAE1EAE299700E0FC
:100C200010E04F9B2AC00032110511F00C5F1F4FDE
:100C30001C830B838DB79EB7885491090FB6F89427
:100C40009EBF0FBE8DBFADB7BEB7119688E4FE0143
:100C5000319601900D928A95E1F70E9443019FEF32
:100C600021EE84E0915020408040E1F700C0000078
:100C70000FB6F894DEBF0FBECDBF4E9B2AC0011544
:100C8000110511F0045011091C830B838DB79EB719
:100C9000885491090FB6F8949EBF0FBE8DBFADB7B3
:100CA000BEB7119688E4FE01319601900D928A95A7
:100CB000E1F70E9443019FEF21EE84E09150204034
:100CC0008040E1F700C000000FB6F894DEBF0FBE11
:100CD000CDBF189BA6CF1C830B838DB79EB78854BE
:100CE00091090FB6F8949EBF0FBE8DBFADB7BEB7CA
:100CF000119688E4FE01319601900D928A95E1F7F4
:100D0000CE0101960E9405020B811C810FB6F8945A
:100D1000DEBF0FBECDBF85CF991B79E004C0991F00
:100D2000961708F0961B881F7A95C9F78095089545
:100D300097FB072E16F4009407D077FD09D00E9488
:100D4000AC0607FC05D03EF4909581959F4F089521
:100D5000709561957F4F0895AA1BBB1B51E107C099
:100D6000AA1FBB1FA617B70710F0A61BB70B881F3B
:100D7000991F5A95A9F780959095BC01CD010895CA
:100D80005058BB27AA270E94D8060C9422080E941C
:100D9000140838F00E941B0820F039F49F3F19F422
:100DA00026F40C9411080EF4E095E7FB0C940B0864
:100DB000E92F0E94330858F3BA17620773078407B4
:100DC000950720F079F4A6F50C9455080EF4E095FB
:100DD0000B2EBA2FA02D0B01B90190010C01CA01F5
:100DE000A0011124FF27591B99F0593F50F4503EA0
:100DF00068F11A16F040A22F232F342F4427585F92
:100E0000F3CF469537952795A795F0405395C9F7A9
:100E10007EF41F16BA0B620B730B840BBAF0915061
:100E2000A1F0FF0FBB1F661F771F881FC2F70EC000
:100E3000BA0F621F731F841F48F4879577956795D3
:100E4000B795F7959E3F08F0B0CF9395880F08F0BF
:100E50009927EE0F9795879508950E9441070C9466
:100E600022080E941B0858F00E94140840F029F440
:100E70005F3F29F00C940B0851110C9456080C9408
:100E800011080E94330868F39923B1F3552391F3B5
:100E9000951B550BBB27AA2762177307840738F0E9
:100EA0009F5F5F4F220F331F441FAA1FA9F335D046
:100EB0000E2E3AF0E0E832D091505040E695001CFA
:100EC000CAF72BD0FE2F29D0660F771F881FBB1FB4
:100ED000261737074807AB07B0E809F0BB0B802D92
:100EE000BF01FF2793585F4F3AF09E3F510578F0BE
:100EF0000C940B080C9456085F3FE4F3983ED4F32F
:100F0000869577956795B795F7959F5FC9F7880F91
:100F1000911D9695879597F90895E1E0660F771FE3
:100F2000881FBB1F621773078407BA0720F0621B74
:100F3000730B840BBA0BEE1F88F7E09508950E949F
:100F40003B0888F09F5798F0B92F9927B751B0F018
:100F5000E1F0660F771F881F991F1AF0BA95C9F73D
:100F600014C0B13091F00E945508B1E008950C947E
:100F70005508672F782F8827B85F39F0B93FCCF331
:100F8000869577956795B395D9F73EF490958095BA
:100F9000709561957F4F8F4F9F4F0895E89409C0DA
:100FA00097FB3EF490958095709561957F4F8F4F9C
:100FB0009F4F9923A9F0F92F96E9BB279395F695B2
:100FC000879577956795B795F111F8CFFAF4BB0F30
:100FD00011F460FF1BC06F5F7F4F8F4F9F4F16C094
:100FE000882311F096E911C0772321F09EE8872F1E
:100FF000762F05C0662371F096E8862F70E060E0DA
:101000002AF09A95660F771F881FDAF7880F969552
:10101000879597F9089597F99F6780E870E060E0F9
:1010200008959FEF80EC089500240A941616170681
:1010300018060906089500240A94121613061406C9
:1010400005060895092E0394000C11F4882352F02C
:10105000BB0F40F4BF2B11F460FF04C06F5F7F4FE4
:101060008F4F9F4F089557FD9058440F551F59F0CB
:101070005F3F71F04795880F97FB991F61F09F3F85
:1010800079F087950895121613061406551FF2CFAE
:101090004695F1DF08C0161617061806991FF1CFFE
:1010A00086957105610508940895E894BB27662725
:1010B0007727CB0197F908950E94610808F48FEF14
:1010C0000895990F0008550FAA0BE0E8FEEF1616D9
:1010D0001706E807F907C0F012161306E407F5072C
:1010E00098F0621B730B840B950B39F40A2661F0A0
:1010F000232B242B252B21F408950A2609F4A14043
:10110000A6958FEF811D811D08958F929F92AF92BA
:10111000BF92CF92DF92EF92FF92CF93DF93EC01D9
:10112000688179818A819B816115710581059105AD
:1011300021F464E279ED8BE597E02DE133EF41E0B6
:1011400050E00E94EA0849015A019B01AC01A7EA5C
:10115000B1E40E9409096B017C01ACEEB4EFA5017A
:1011600094010E941709DC01CB018C0D9D1DAE1D61
:10117000BF1DB7FF03C00197A109B04888839983B9
:10118000AA83BB839F77DF91CF91FF90EF90DF9091
:10119000CF90BF90AF909F908F9008950E94850848
:1011A000089585E091E00E9485080895A0E0B0E0F0
:1011B0008093050190930601A0930701B093080165
:1011C0000895FB01DC0102C005900D924150504092
:1011D000D8F70895052E97FB1EF400940E9401098C
:1011E00057FD07D00E941C0907FC03D04EF40C9455
:1011F000010950954095309521953F4F4F4F5F4FD6
:10120000089590958095709561957F4F8F4F9F4F72
:1012100008950E943E09A59F900DB49F900DA49F34
:10122000800D911D11240895B7FF0C9409090E94A7
:101230000909821B930B0895A1E21A2EAA1BBB1B5E
:10124000FD010DC0AA1FBB1FEE1FFF1FA217B30792
:10125000E407F50720F0A21BB30BE40BF50B661FA8
:10126000771F881F991F1A9469F76095709580956C
:1012700090959B01AC01BD01CF010895A29FB001E3
:10128000B39FC001A39F700D811D1124911DB29FBA
:0E129000700D811D1124911D0895F894FFCF5B
:10129E001024E02410010000005D771408080808EF
:0812AE0008080811150A0E11D1
:00000001FF
