:100000000C9424010C9441010C9441010C94410185
:100010000C9441010C9441010C9441010C94410158
:100020000C9441010C9441010C9441010C94410148
:100030000C9441010C9441010C9441010C94410138
:100040000C9441010C9441010C9441010C94410128
:100050000C9441010C9441010C9441010C94410118
:100060000C9441010C944101000000000000005F6D
:1000700000000007000700147F147F14242A7F2A41
:10008000122313086462364955225000050300000C
:10009000001C2241000041221C0014083E081408E4
:1000A000083E0808005030000008080808080060F2
:1000B00060000020100804023E5149453E00427F86
:1000C000400042615149462141454B311814127F8D
:1000D0001027454545393C4A494930017109050316
:1000E0003649494936064949291E0036360000007E
:1000F0005636000008142241001414141414004150
:100100002214080201510906324979413E7E11113B
:10011000117E7F494949363E414141227F4141227A
:100120001C7F494949417F090909013E4149497AF2
:100130007F0808087F00417F41002040413F017F48
:10014000081422417F404040407F020C027F7F0420
:1001500008107F3E4141413E7F090909063E415159
:10016000215E7F09192946464949493101017F012C
:10017000013F4040403F1F2040201F3F4038403F4C
:100180006314081463070870080761514945430068
:100190007F41410002040810200041417F00040219
:1001A0000102044040404040000102040020545439
:1001B00054787F48444438384444442038444448C0
:1001C0007F3854545418087E0901020C5252523E92
:1001D0007F0804047800447D40002040443D007FB7
:1001E0001028440000417F40007C041804787C08FB
:1001F00004047838444444387C1414140808141453
:10020000187C7C080404084854545420043F44409B
:10021000203C4040207C1C2040201C3C4030403C86
:1002200044281028440C5050503C4464544C440022
:100230000836410000007F00000041360800100829
:10024000081008000000000011241FBECFEFD8E006
:10025000DEBFCDBF11E0A0E0B1E0E4E4FCE002C00D
:1002600005900D92AE30B107D9F723E0AEE0B1E0D2
:1002700001C01D92A834B207E1F70E940E040C944D
:1002800020060C94000008952998662311F02B9AFB
:1002900001C02B9827E030E090E0AC01022E02C0B4
:1002A000559547950A94E2F740FF02C02C9A01C089
:1002B0002C982D9A2D982150310978F7299A089574
:1002C00060E00C944401CF93DF93219A229A239A01
:1002D000249A259A2A9A299A8FE39CE90197F1F7A3
:1002E00000C000002A989FEF2AE683E0915020404A
:1002F0008040E1F700C000002A9A299881E20E941C
:10030000600183E10E94600186E00E94600182EC4E
:100310000E94600180E20E94600189E00E94600109
:1003200080E80E94600180E40E946001C8EFD1E093
:1003300061E080E00E9444012197D1F788E00E94AB
:1003400060018CE0DF91CF910C94600180E80E9405
:10035000600180E40E94600110920603109207037E
:1003600088EF91E0EEE0F1E0DF019C011D92215069
:100370003040E1F70895811102C084E201C080E2BB
:100380000C946001962F969596959695E82FF0E03F
:1003900084E5989FE00DF11D1124E25FFE4F677028
:1003A00081E090E001C0880F6A95EAF7442319F0D4
:1003B0009081892B03C08095908189238083089543
:1003C0008F929F92AF92BF92DF92EF92FF920F9324
:1003D0001F93CF93DF9300D000D01F92CDB7DEB72D
:1003E000F62E282F082E000C330B80326CF0205292
:1003F000310985E0829FB001839F700D11246859F7
:100400007F4F45E050E00EC0220F331FF901E85F37
:10041000FC4F008111810115110559F445E050E0B0
:1004200068E670E0CE0101960E9417068E010F5F0C
:100430001F4F85E0F89E5001112497E0F99E40017E
:100440001124D12C8D2D90E08A159B0544F5E12CCB
:100450008E2D90E08815990504F58D2D6F2D0E9445
:100460004604F801E80FF11D208130E08E2D0E9436
:10047000460402C0359527958A95E2F760910703F7
:10048000809106036E0D20FF02C041E001C040E0F4
:100490008D0D0E94C201E394DBCFD394D3CF809122
:1004A000060391E0980F8F2D880F880F8F0D890F0D
:1004B000843518F4809306030BC0109206038091D4
:1004C00007038F5F97E0F99E800D11248093070347
:1004D00080910703803320F01092060310920703E7
:1004E0000F900F900F900F900F90DF91CF911F9171
:1004F0000F91FF90EF90DF90BF90AF909F908F9003
:10050000089580323CF4E82FEE0FFF0BE85FFC4FBC
:100510007183608308951F93CF93DF93162FEC01AF
:100520008991882321F0612F0E94E001F9CFDF91AA
:10053000CF911F9108958093060360930703089558
:10054000CF93DF9380E80E94600180E40E94600105
:10055000CEE0D1E061E089910E94440183E0C630A1
:10056000D807C1F7DF91CF9108954F925F926F92B4
:100570007F928F929F92AF92BF92CF92DF92EF9233
:10058000FF92CF93DF93CDB7DEB72E970FB6F894D7
:10059000DEBF0FBECDBF8D876987F22E642F70E05E
:1005A000681B7109072E000C880B990B0E946205CD
:1005B0004B015C016F2D70E02985621B7109072ECC
:1005C000000C880B990B0E9462056B017C012401D1
:1005D0003501E89477F8DC01CB01BF7789839A83F2
:1005E000AB83BC839C01AD01C301B2010E94EE0547
:1005F00087FF04C049805A806B807C80A3019201F0
:10060000C501B4010E94BF0469837A838B839C83F4
:10061000A3019201C701B6010E94BF046D837E83CE
:100620008F839887AD856A2F70E080E090E00E940C
:1006300060056B017C01B9856B2F70E080E090E074
:100640000E9460054B015C0121E030E03E872D8770
:10065000AD85BE85BD01BB0F880B990B0E9462055D
:100660009B01AC01C301B2010E94EE0587FD2CC0C5
:10067000C501B4010E94310569877A878B879C8701
:10068000C701B6010E943105DC01CB0141E069855B
:100690000E94C20129813A814B815C81C701B60168
:1006A0000E9453046B017C012D813E814F8158854E
:1006B000C501B4010E9453044B015C018D859E85E8
:1006C00001969E878D87C4CF2E960FB6F894DEBF15
:1006D0000FBECDBFDF91CF91FF90EF90DF90CF9015
:1006E000BF90AF909F908F907F906F905F904F9052
:1006F00008950F931F93CF93DF93C82F162F042FC6
:10070000D22F262F0E94B5022D2F402F612F802F30
:100710000E94B5022D2F4C2F6D2F802F0E94B50205
:10072000212F4C2F6D2F8C2FDF91CF911F910F9187
:100730000C94B5027F928F929F92AF92BF92CF920C
:10074000DF92EF92FF920F931F93CF93DF93D82EF8
:10075000C62EC42FD0E0E12CF12C00E010E041E0E7
:10076000AC2CA00E6A2DBC2EBD0C8B2D0E94C2019C
:1007700041E08C2E8C0C682D9D2C900E892D0E94B2
:10078000C20141E0682D7D2C701A872D0E94C201A4
:1007900041E06A2D8D2C8C1A882D0E94C20141E007
:1007A000AC2CA01A6A2D882D0E94C20141E08C2C2D
:1007B0008C1A682D872D0E94C20141E0682D892D79
:1007C0000E94C20141E06A2D8B2D0E94C2011E14BD
:1007D0001F045CF00F5F1F4FC801880F991F01961F
:1007E000E80EF91E1E141F043CF42197CE01880F59
:1007F000991F0196E81AF90AC017D1070CF0AFCF7C
:10080000DF91CF911F910F91FF90EF90DF90CF90EC
:10081000BF90AF909F908F907F900895CF93DF937C
:10082000CDB7DEB728970FB6F894DEBF0FBECDBFA9
:100830000E9463010E94A60160E071E081E00E94D5
:10084000810288E0E5E0F1E0DE01119601900D9271
:100850008A95E1F7BE016F5F7F4F82E00E948102BF
:100860000E94A60160E080E00E949B0262E082E0BC
:100870000E94E0010E94A0022FEF8BE792E9215035
:1008800080409040E1F700C00000EACF991B79E07A
:1008900004C0991F961708F0961B881F7A95C9F710
:1008A000809508955058BB27AA270E946A040C948B
:1008B000B4050E94A60538F00E94AD0520F039F479
:1008C0009F3F19F426F40C94A3050EF4E095E7FB82
:1008D0000C949D05E92F0E94C50558F3BA176207CD
:1008E00073078407950720F079F4A6F50C94E705C3
:1008F0000EF4E0950B2EBA2FA02D0B01B90190013B
:100900000C01CA01A0011124FF27591B99F0593F7E
:1009100050F4503E68F11A16F040A22F232F342FC6
:100920004427585FF3CF469537952795A795F04014
:100930005395C9F77EF41F16BA0B620B730B840B29
:10094000BAF09150A1F0FF0FBB1F661F771F881FE1
:10095000C2F70EC0BA0F621F731F841F48F4879539
:1009600077956795B795F7959E3F08F0B0CF93952B
:10097000880F08F09927EE0F9795879508950E94A4
:10098000D3040C94B4050E94AD0558F00E94A6054E
:1009900040F029F45F3F29F00C949D0551110C940F
:1009A000E8050C94A3050E94C50568F39923B1F3EB
:1009B000552391F3951B550BBB27AA276217730785
:1009C000840738F09F5F5F4F220F331F441FAA1F19
:1009D000A9F335D00E2E3AF0E0E832D091505040D5
:1009E000E695001CCAF72BD0FE2F29D0660F771F83
:1009F000881FBB1F261737074807AB07B0E809F069
:100A0000BB0B802DBF01FF2793585F4F3AF09E3FED
:100A1000510578F00C949D050C94E8055F3FE4F3D4
:100A2000983ED4F3869577956795B795F7959F5F30
:100A3000C9F7880F911D9695879597F90895E1E07C
:100A4000660F771F881FBB1F621773078407BA07DB
:100A500020F0621B730B840BBA0BEE1F88F7E09536
:100A600008950E94CD0588F09F5798F0B92F9927D7
:100A7000B751B0F0E1F0660F771F881F991F1AF089
:100A8000BA95C9F714C0B13091F00E94E705B1E002
:100A900008950C94E705672F782F8827B85F39F001
:100AA000B93FCCF3869577956795B395D9F73EF422
:100AB00090958095709561957F4F8F4F9F4F0895CA
:100AC000E89409C097FB3EF49095809570956195E8
:100AD0007F4F8F4F9F4F9923A9F0F92F96E9BB279E
:100AE0009395F695879577956795B795F111F8CF1A
:100AF000FAF4BB0F11F460FF1BC06F5F7F4F8F4F85
:100B00009F4F16C0882311F096E911C0772321F07A
:100B10009EE8872F762F05C0662371F096E8862F12
:100B200070E060E02AF09A95660F771F881FDAF769
:100B3000880F9695879597F9089597F99F6780E8AC
:100B400070E060E008959FEF80EC089500240A941F
:100B50001616170618060906089500240A94121698
:100B60001306140605060895092E0394000C11F4CB
:100B7000882352F0BB0F40F4BF2B11F460FF04C078
:100B80006F5F7F4F8F4F9F4F089557FD9058440FD1
:100B9000551F59F05F3F71F04795880F97FB991FDC
:100BA00061F09F3F79F08795089512161306140699
:100BB000551FF2CF4695F1DF08C016161706180626
:100BC000991FF1CF86957105610508940895E89401
:100BD000BB2766277727CB0197F908950E94F30575
:100BE00008F48FEF0895990F0008550FAA0BE0E85D
:100BF000FEEF16161706E807F907C0F012161306DF
:100C0000E407F50798F0621B730B840B950B39F41E
:100C10000A2661F0232B242B252B21F408950A2684
:100C200009F4A140A6958FEF811D811D0895FB0158
:100C3000DC0102C005900D9241505040D8F7089554
:040C4000F894FFCF56
:0E0C44001024E02410001B0A1F111B151F00B6
:00000001FF
