:100000000C9424010C9441010C9441010C94410185
:100010000C9441010C9441010C9441010C94410158
:100020000C9441010C9441010C9441010C94820305
:100030000C9441010C9441010C9441010C94410138
:100040000C9441010C9441010C9441010C94410128
:100050000C9441010C9441010C9441010C94410118
:100060000C9441010C944101000000000000005F6D
:1000700000000007000700147F147F14242A7F2A41
:10008000122313086462364955225000050300000C
:10009000001C2241000041221C0014083E081408E4
:1000A000083E0808005030000008080808080060F2
:1000B00060000020100804023E5149453E00427F86
:1000C000400042615149462141454B311814127F8D
:1000D0001027454545393C4A494930017109050316
:1000E0003649494936064949291E0036360000007E
:1000F0005636000008142241001414141414004150
:100100002214080201510906324979413E7E11113B
:10011000117E7F494949363E414141227F4141227A
:100120001C7F494949417F090909013E4149497AF2
:100130007F0808087F00417F41002040413F017F48
:10014000081422417F404040407F020C027F7F0420
:1001500008107F3E4141413E7F090909063E415159
:10016000215E7F09192946464949493101017F012C
:10017000013F4040403F1F2040201F3F4038403F4C
:100180006314081463070870080761514945430068
:100190007F41410002040810200041417F00040219
:1001A0000102044040404040000102040020545439
:1001B00054787F48444438384444442038444448C0
:1001C0007F3854545418087E0901020C5252523E92
:1001D0007F0804047800447D40002040443D007FB7
:1001E0001028440000417F40007C041804787C08FB
:1001F00004047838444444387C1414140808141453
:10020000187C7C080404084854545420043F44409B
:10021000203C4040207C1C2040201C3C4030403C86
:1002200044281028440C5050503C4464544C440022
:100230000836410000007F00000041360800100829
:10024000081008000000000011241FBECFEFD8E006
:10025000DEBFCDBF11E0A0E0B1E0E8ECF5E102C007
:1002600005900D92A831B107D9F723E0A8E1B1E0DC
:1002700001C01D92AA35B207E1F70E9484060C94D2
:10028000E20A0C9400008F929F92AF92BF92CF929D
:10029000DF92EF92FF920F931F93CF93DF93CDB72F
:1002A000DEB76C01AB88BC888D889E88EF88F88C9F
:1002B000C757DF4F08811981C958D0400E940904EF
:1002C00069898F850E94FE0462E082E00E944304F7
:1002D00021E0E216F10409F069C0682D8A2D0E9420
:1002E000FE0462E083E00E94430488E088169104E3
:1002F0007CF094E18916910474F0E0E28E1691048A
:100300006CF0F0E28F16910461F483E090E00BC092
:1003100080E090E008C081E090E005C082E090E0DD
:1003200002C08FEF9FEF24E4A216B10441F0E8E38E
:10033000AE16B10439F4AA24A394B12C06C0A12CA2
:10034000B12C03C0AA24AA94BA2C9E01215F3F4F6E
:1003500040E050E0401751074CF5F9016489758978
:10036000A616B706F1F46689778986179707C9F448
:1003700001501109B9017A01E016F10684F4FFEF8A
:10038000EF1AFF0AEEE09E2EFB017896DB011A962B
:1003900001900D929A94E1F7625F7F4FEDCFE12CCF
:1003A000F12C4F5F5F4F225F3F4FD4CFCE010F96AE
:1003B0005C01812C912C8016910684F4F5016485F2
:1003C00082850E94FE0462E084E00E944304FFEF05
:1003D0008F1A9F0A2EE0A20EB11CEDCF0E940305DA
:1003E000F88EEF8AC757DF4F19830883C958D0406A
:1003F0008CE8FE013F96D60101900D928A95E1F7B7
:10040000C601DF91CF911F910F91FF90EF90DF9088
:10041000CF90BF90AF909F908F9008954F925F9232
:100420006F927F928F929F92AF92BF92CF92DF9204
:10043000EF92FF920F931F93CF93DF93CDB7DEB769
:100440005C01C357DF4FC880D980CD58D04080E0D1
:1004500090E00E947106CB010E946B0A28E0C21650
:10046000D1040CF08EC00E94660A62E070E00E9427
:100470002D088C0124EF20037001219FF00C112422
:1004800034E4E30EF11C0E94660A64E070E00E940E
:100490002D082CE0289FA001299F500D112420E059
:1004A00030E06EE0462E72E0672E712CE4E08E2E76
:1004B000912CFCE05F2E2C153D059CF5429EF00131
:1004C000439EF00D112463E170E06C0F7D1FE60F79
:1004D000F71F648575854617570701F56285738593
:1004E0006E157F05D9F40E94660AB3010E942D089B
:1004F0008C0174EF70037001719FF00C112484E47F
:10050000E80EF11C0E94660AB4010E942D08589E54
:10051000A001599E500D112420E030E02F5F3F4F85
:10052000CACF2EE02C9DF0012D9DF00D11243A969E
:1005300023E130E02C0F3D1FE20FF31FF182E08238
:100540005383428311861086138702879587848799
:10055000F801EE0FFF1FEE0FFF1FE80FF91FFE96C9
:10056000EE0FFF1FE20FF31F81E090E09183808385
:100570003FEFC31AD30AC357DF4FD982C882CD5881
:10058000D0408CE8FE017396D50101900D928A95BA
:10059000E1F7C501DF91CF911F910F91FF90EF908F
:1005A000DF90CF90BF90AF909F908F907F906F9093
:1005B0005F904F9008950F931F93CF93DF93CDB724
:1005C000DEB7CC58D1090FB6F894DEBF0FBECDBF51
:1005D0008C018DB79EB78C5891090FB6F8949EBFC9
:1005E0000FBE8DBFADB7BEB711968CE8FE01ED56BC
:1005F000FF4F01900D928A95E1F7CE018D569F4FE6
:100600000E940E02CB56DF4F88819981C559D04098
:1006100028E030E0C956DF4F39832883C759D040DE
:10062000C756DF4F99838883C959D04081E090E055
:10063000C556DF4F99838883CB59D0408DB79EB77D
:1006400084579F4F0FB6F894DEBF0FBECDBF8C58B6
:1006500091090FB6F8949EBF0FBE8DBFADB7BEB760
:1006600011968CE8FE01ED56FF4F01900D928A9590
:10067000E1F7CE0101960E9443018CE8FE0131961C
:10068000DE01AD56BF4F01900D928A95E1F78CE8DF
:10069000FE01ED56FF4FD80101900D928A95E1F7CA
:1006A0000FB6F894DEBF0FBECDBFC801C457DF4FF1
:1006B0000FB6F894DEBF0FBECDBFDF91CF911F9173
:1006C0000F9108950F931F93CF93DF93EC018B014C
:1006D0000E940904602F8C2F0E94FE0462E082E0D9
:1006E0000E9443040E9403052FEF81EE94E0215005
:1006F00080409040E1F700C00000DF91CF911F9152
:100700000F9108951F920F920FB60F9211248F939D
:100710009F93AF93BF938091180190911901A0917D
:100720001A01B0911B010196A11DB11D8093180102
:1007300090931901A0931A01B0931B01BF91AF913F
:100740009F918F910F900FBE0F901F901895299831
:10075000662311F02B9A01C02B9827E030E090E03F
:10076000AC01022E02C0559547950A94E2F740FF6E
:1007700002C02C9A01C02C982D9A2D982150310935
:1007800078F7299A089560E00C94A703CF93DF933C
:10079000219A229A239A249A259A2A9A299A8FE3AF
:1007A0009CE90197F1F700C000002A989FEF2AE624
:1007B00083E0915020408040E1F700C000002A9A79
:1007C000299881E20E94C30383E10E94C30386E06B
:1007D0000E94C30382EC0E94C30380E20E94C30311
:1007E00089E00E94C30380E80E94C30380E40E9462
:1007F000C303C8EFD1E061E080E00E94A703219726
:10080000D1F788E00E94C3038CE0DF91CF910C9474
:10081000C30380E80E94C30380E40E94C3031092D4
:1008200014031092150388EF91E0ECE1F1E0DF0191
:100830009C011D9221503040E1F70895811102C0C2
:1008400084E201C080E20C94C303962F969596959E
:100850009695E82FF0E084E5989FE00DF11D1124B6
:10086000E45EFE4F677081E090E001C0880F6A95FA
:10087000EAF7442319F09081892B03C08095908179
:100880008923808308958F929F92AF92BF92DF92C7
:10089000EF92FF920F931F93CF93DF9300D000D07E
:1008A0001F92CDB7DEB7F62E282F082E000C330B83
:1008B00080326CF02052310985E0829FB001839F25
:1008C000700D112468597F4F45E050E00EC0220F93
:1008D000331FF901EA5EFC4F0081118101151105FA
:1008E00059F445E050E068E670E0CE0101960E94C0
:1008F000760A8E010F5F1F4F85E0F89E500111248C
:1009000097E0F99E40011124D12C8D2D90E08A159D
:100910009B0544F5E12C8E2D90E08815990504F592
:100920008D2D6F2D0E942108F801E80FF11D208107
:1009300030E08E2D0E94210802C0359527958A95BA
:10094000E2F760911503809114036E0D20FF02C041
:1009500041E001C040E08D0D0E942504E394DBCF0F
:10096000D394D3CF8091140391E0980F8F2D880FEB
:10097000880F8F0D890F843518F4809314030BC0F2
:1009800010921403809115038F5F97E0F99E800DFC
:1009900011248093150380911503803320F0109269
:1009A0001403109215030F900F900F900F900F905B
:1009B000DF91CF911F910F91FF90EF90DF90BF904B
:1009C000AF909F908F90089580323CF4E82FEE0F07
:1009D000FF0BEA5EFC4F7183608308951F93CF93F2
:1009E000DF93162FEC018991882321F0612F0E945B
:1009F0004304F9CFDF91CF911F91089580931403A1
:100A0000609315030895CF93DF9380E80E94C3039A
:100A100080E40E94C303CCE1D1E061E089910E94AF
:100A2000A70383E0C431D807C1F7DF91CF910895C0
:100A30004F925F926F927F928F929F92AF92BF92EE
:100A4000CF92DF92EF92FF92CF93DF93CDB7DEB7D5
:100A50002E970FB6F894DEBF0FBECDBF8D87698786
:100A6000F22E642F70E0681B7109072E000C880BB2
:100A7000990B0E9465094B015C016F2D70E029857F
:100A8000621B7109072E000C880B990B0E946509E7
:100A90006B017C0124013501E89477F8DC01CB017E
:100AA000BF7789839A83AB83BC839C01AD01C3016B
:100AB000B2010E94F10987FF04C049805A806B800F
:100AC0007C80A3019201C501B4010E94C208698320
:100AD0007A838B839C83A3019201C701B6010E9494
:100AE000C2086D837E838F839887AD856A2F70E0FF
:100AF00080E090E00E9463096B017C01B9856B2F57
:100B000070E080E090E00E9463094B015C0121E00D
:100B100030E03E872D87AD85BE85BD01BB0F880BBC
:100B2000990B0E9465099B01AC01C301B2010E94AF
:100B3000F10987FD2CC0C501B4010E943409698701
:100B40007A878B879C87C701B6010E943409DC0134
:100B5000CB0141E069850E94250429813A814B81BE
:100B60005C81C701B6010E9456086B017C012D8192
:100B70003E814F815885C501B4010E9456084B0142
:100B80005C018D859E8501969E878D87C4CF2E96AC
:100B90000FB6F894DEBF0FBECDBFDF91CF91FF90AF
:100BA000EF90DF90CF90BF90AF909F908F907F900D
:100BB0006F905F904F9008950F931F93CF93DF93A3
:100BC000C82F162F042FD22F262F0E9418052D2F45
:100BD000402F612F802F0E9418052D2F4C2F6D2F35
:100BE000802F0E941805212F4C2F6D2F8C2FDF9105
:100BF000CF911F910F910C9418057F928F929F9225
:100C0000AF92BF92CF92DF92EF92FF920F931F931A
:100C1000CF93DF93D82EC62EC42FD0E0E12CF12C39
:100C200000E010E041E0AC2CA00E6A2DBC2EBD0C03
:100C30008B2D0E94250441E08C2E8C0C682D9D2C60
:100C4000900E892D0E94250441E0682D7D2C701A9C
:100C5000872D0E94250441E06A2D8D2C8C1A882D49
:100C60000E94250441E0AC2CA01A6A2D882D0E9418
:100C7000250441E08C2C8C1A682D872D0E942504B8
:100C800041E0682D892D0E94250441E06A2D8B2DBD
:100C90000E9425041E141F045CF00F5F1F4FC80143
:100CA000880F991F0196E80EF91E1E141F043CF4CC
:100CB0002197CE01880F991F0196E81AF90AC017EB
:100CC000D1070CF0AFCFDF91CF911F910F91FF9023
:100CD000EF90DF90CF90BF90AF909F908F907F90DC
:100CE0000895FC010FB6F894609156037091570374
:100CF00080915803909159030FBE309721F0608383
:100D00007183828393830895CF93DF93CDB7DEB74A
:100D1000C752D1400FB6F894DEBF0FBECDBF0E94C0
:100D2000C6030E94090460E071E081E00E94E404CF
:100D3000569857982098389A85E0E9E0F1E0DE016E
:100D4000A956BF4F01900D928A95E1F7BE016956F1
:100D50007F4F82E00E94E40485E0EEE0F1E0DE01F6
:100D6000AE56BF4F01900D928A95E1F7BE016E56C7
:100D70007F4F83E00E94E40485E0E3E1F1E0DE01DF
:100D8000A357BF4F01900D928A95E1F7BE016357BB
:100D90007F4F84E00E94E404F89410928000109247
:100DA00081001092850010928400109289001092A8
:100DB000880080918100886080938100809181000B
:100DC00085608093810080916F00826080936F00C6
:100DD000419A78941A82198218861F82ED961FAE66
:100DE0001EAEED9720E030E040E050E080E090E083
:100DF00000E010E0C12CD12C76014F9B38C080322E
:100E0000910511F0049602C080E290E09C838B83F0
:100E10005E834D833A8729872DB73EB72C58310919
:100E20000FB6F8943EBF0FBE2DBFADB7BEB711963B
:100E30008CE8FE01319601900D928A95E1F7CE0182
:100E400001960E9443018B819C814D815E812985A1
:100E50003A856FEF71EEE4E061507040E040E1F7F9
:100E600000C000000FB6F894DEBF0FBECDBF4E9B92
:100E700042C0009711F0049702C080E090E09C838C
:100E80008B835E834D833A8729878DB79EB78C58B5
:100E900091090FB6F8949EBF0FBE8DBFADB7BEB718
:100EA00011968CE8FE01319601900D928A95E1F73A
:100EB000CE0184569F4F0E9443018CE8FE01E45608
:100EC000FF4FDE01119601900D928A95E1F78B811B
:100ED0009C814D815E8129853A85EFEF61EE74E05A
:100EE000E15060407040E1F700C000000FB6F89498
:100EF000DEBF0FBECDBF189B41C09C838B835E833A
:100F00004D833A8729878DB79EB78C5891090FB6C4
:100F1000F8949EBF0FBE8DBFADB7BEB711968CE8DB
:100F2000FE01319601900D928A95E1F7CE0184562B
:100F30009F4F0E94DB028CE8FE01E456FF4FDE016A
:100F4000119601900D928A95E1F78B819C814D81DC
:100F50005E8129853A85EFEF61EE74E0E1506040F3
:100F60007040E1F700C000000FB6F894DEBF0FBE7E
:100F7000CDBFC12CD12C7601C39406C01C141D0416
:100F80001E041F040CF039CF409A809018019090F5
:100F90001901A0901A01B0901B01C80CD91CEA1CC1
:100FA000FB1C78EBC7167BE0D706E104F1040CF4D8
:100FB00024CF2130310509F020CF9C838B835E83C1
:100FC0004D833A8729878DB79EB78C5891090FB604
:100FD000F8949EBF0FBE8DBFADB7BEB711968CE81B
:100FE000FE01319601900D928A95E1F7CE0184566B
:100FF0009F4F0E9443018CE8FE01E456FF4FDE0143
:10100000119601900D928A95E1F78B819C814D811B
:101010005E814C5F5F4F0F5F1F4F0FB6F894DEBFCE
:101020000FBECDBF0031110549F420E030E000E0F3
:1010300010E0C12CD12C7601C394DFCE29853A85EE
:10104000F8CF991B79E004C0991F961708F0961BFA
:10105000881F7A95C9F78095089597FB072E16F497
:10106000009407D077FD09D00E94410807FC05D005
:101070003EF4909581959F4F0895709561957F4FAF
:101080000895AA1BBB1B51E107C0AA1FBB1FA617CF
:10109000B70710F0A61BB70B881F991F5A95A9F721
:1010A00080959095BC01CD0108955058BB27AA2783
:1010B0000E946D080C94B7090E94A90938F00E949B
:1010C000B00920F039F49F3F19F426F40C94A609D6
:1010D0000EF4E095E7FB0C94A009E92F0E94C809E3
:1010E00058F3BA17620773078407950720F079F45D
:1010F000A6F50C94EA090EF4E0950B2EBA2FA02D5C
:101100000B01B90190010C01CA01A0011124FF27B4
:10111000591B99F0593F50F4503E68F11A16F040AF
:10112000A22F232F342F4427585FF3CF46953795AE
:101130002795A795F0405395C9F77EF41F16BA0B73
:10114000620B730B840BBAF09150A1F0FF0FBB1F21
:10115000661F771F881FC2F70EC0BA0F621F731F6A
:10116000841F48F4879577956795B795F7959E3FC7
:1011700008F0B0CF9395880F08F09927EE0F979558
:10118000879508950E94D6080C94B7090E94B0096B
:1011900058F00E94A90940F029F45F3F29F00C940F
:1011A000A00951110C94EB090C94A6090E94C809DE
:1011B00068F39923B1F3552391F3951B550BBB2786
:1011C000AA2762177307840738F09F5F5F4F220FCB
:1011D000331F441FAA1FA9F335D00E2E3AF0E0E8C2
:1011E00032D091505040E695001CCAF72BD0FE2F0C
:1011F00029D0660F771F881FBB1F261737074807A0
:10120000AB07B0E809F0BB0B802DBF01FF27935857
:101210005F4F3AF09E3F510578F00C94A0090C9472
:10122000EB095F3FE4F3983ED4F386957795679595
:10123000B795F7959F5FC9F7880F911D969587958C
:1012400097F90895E1E0660F771F881FBB1F6217AB
:1012500073078407BA0720F0621B730B840BBA0B69
:10126000EE1F88F7E09508950E94D00988F09F57F7
:1012700098F0B92F9927B751B0F0E1F0660F771FBA
:10128000881F991F1AF0BA95C9F714C0B13091F0B0
:101290000E94EA09B1E008950C94EA09672F782FBB
:1012A0008827B85F39F0B93FCCF386957795679575
:1012B000B395D9F73EF490958095709561957F4FE1
:1012C0008F4F9F4F0895E89409C097FB3EF4909587
:1012D0008095709561957F4F8F4F9F4F9923A9F00F
:1012E000F92F96E9BB279395F6958795779567959E
:1012F000B795F111F8CFFAF4BB0F11F460FF1BC0E2
:101300006F5F7F4F8F4F9F4F16C0882311F096E974
:1013100011C0772321F09EE8872F762F05C0662322
:1013200071F096E8862F70E060E02AF09A95660FDB
:10133000771F881FDAF7880F9695879597F9089594
:1013400097F99F6780E870E060E008959FEF80EC78
:10135000089500240A94161617061806090608951B
:1013600000240A9412161306140605060895092E81
:101370000394000C11F4882352F0BB0F40F4BF2BF0
:1013800011F460FF04C06F5F7F4F8F4F9F4F089530
:1013900057FD9058440F551F59F05F3F71F0479526
:1013A000880F97FB991F61F09F3F79F0879508950B
:1013B000121613061406551FF2CF4695F1DF08C02A
:1013C000161617061806991FF1CF86957105610547
:1013D00008940895E894BB2766277727CB0197F9EF
:1013E00008950E94F60908F48FEF0895990F0008F8
:1013F000550FAA0BE0E8FEEF16161706E807F907E7
:10140000C0F012161306E407F50798F0621B730B81
:10141000840B950B39F40A2661F0232B242B252B02
:1014200021F408950A2609F4A140A6958FEF811DA5
:10143000811D08958F929F92AF92BF92CF92DF92BB
:10144000EF92FF92CF93DF93EC01688179818A81DB
:101450009B81611571058105910521F464E279EDA7
:101460008BE597E02DE133EF41E050E00E947F0AE9
:1014700049015A019B01AC01A7EAB1E40E949E0A0E
:101480006B017C01ACEEB4EFA50194010E94AC0AA3
:10149000DC01CB018C0D9D1DAE1DBF1DB7FF03C030
:1014A0000197A109B04888839983AA83BB839F775A
:1014B000DF91CF91FF90EF90DF90CF90BF90AF90F2
:1014C0009F908F9008950E941A0A089585E091E0F8
:1014D0000E941A0A0895A0E0B0E08093050190935D
:1014E0000601A0930701B09308010895FB01DC01F8
:1014F00002C005900D9241505040D8F70895052E36
:1015000097FB1EF400940E94960A57FD07D00E9494
:10151000B10A07FC03D04EF40C94960A50954095FE
:10152000309521953F4F4F4F5F4F0895909580958F
:10153000709561957F4F8F4F9F4F08950E94D30AFA
:10154000A59F900DB49F900DA49F800D911D112417
:101550000895B7FF0C949E0A0E949E0A821B930B6B
:101560000895A1E21A2EAA1BBB1BFD010DC0AA1FE4
:10157000BB1FEE1FFF1FA217B307E407F50720F0FC
:10158000A21BB30BE40BF50B661F771F881F991F77
:101590001A9469F760957095809590959B01AC01C0
:1015A000BD01CF010895A29FB001B39FC001A39FC9
:1015B000700D811D1124911DB29F700D811D11248C
:0815C000911D0895F894FFCF7E
:1015C8001024E02410010000005D771408080808C2
:0815D80008080811150A0E11A4
:00000001FF
