:100000000C9424010C9441010C9441010C94410185
:100010000C9441010C9441010C9441010C94410158
:100020000C9441010C9441010C9441010C949B02ED
:100030000C9441010C9441010C9441010C94410138
:100040000C9441010C9441010C9441010C94410128
:100050000C9441010C9441010C9441010C94410118
:100060000C9441010C944101000000000000005F6D
:1000700000000007000700147F147F14242A7F2A41
:10008000122313086462364955225000050300000C
:10009000001C2241000041221C0014083E081408E4
:1000A000083E0808005030000008080808080060F2
:1000B00060000020100804023E5149453E00427F86
:1000C000400042615149462141454B311814127F8D
:1000D0001027454545393C4A494930017109050316
:1000E0003649494936064949291E0036360000007E
:1000F0005636000008142241001414141414004150
:100100002214080201510906324979413E7E11113B
:10011000117E7F494949363E414141227F4141227A
:100120001C7F494949417F090909013E4149497AF2
:100130007F0808087F00417F41002040413F017F48
:10014000081422417F404040407F020C027F7F0420
:1001500008107F3E4141413E7F090909063E415159
:10016000215E7F09192946464949493101017F012C
:10017000013F4040403F1F2040201F3F4038403F4C
:100180006314081463070870080761514945430068
:100190007F41410002040810200041417F00040219
:1001A0000102044040404040000102040020545439
:1001B00054787F48444438384444442038444448C0
:1001C0007F3854545418087E0901020C5252523E92
:1001D0007F0804047800447D40002040443D007FB7
:1001E0001028440000417F40007C041804787C08FB
:1001F00004047838444444387C1414140808141453
:10020000187C7C080404084854545420043F44409B
:10021000203C4040207C1C2040201C3C4030403C86
:1002200044281028440C5050503C4464544C440022
:100230000836410000007F00000041360800100829
:10024000081008000000000011241FBECFEFD8E006
:10025000DEBFCDBF11E0A0E0B1E0E6E6F2E102C012
:1002600005900D92A831B107D9F723E0A8E1B1E0DC
:1002700001C01D92A635B207E1F70E9482050C94D9
:1002800031090C9400001F93CF93DF93CDB7DEB7F5
:100290000E94070368858E810E94FC0362E082E071
:1002A0000E9441038E859F85019741F46C858A8564
:1002B0000E94FC0362E083E00E94410310E0612F92
:1002C00084E40E94FC0361E084E00E944103145F27
:1002D0001033A9F7DF91CF911F910C940104BF92C5
:1002E000CF92DF92EF92FF920F931F93CF93DF9302
:1002F000CDB7DEB77C0164960EAD1FAD649780E08C
:1003000090E00E946F05CB010E94BA0806301105EB
:100310000CF04CC00E94B50869E070E00E947C06B9
:10032000880F991F880F991F20E030E04AE0B42E13
:1003300059E0C52ED12C20173107F4F4B29EF001FC
:10034000B39EF00D11244CE050E04C0F5D1FE40F04
:10035000F51F448555854817590759F40E94B5087B
:10036000B6010E947C06880F991F880F991F20E014
:1003700030E02F5F3F4FDFCF0F5F1F4F2AE0209FFE
:10038000F001219FF00D11242CE030E02C0F3D1FD7
:10039000E20FF31F24E430E03183208393838283D0
:1003A0001186108664961FAF0EAF649788E4FE0135
:1003B0003C96D70101900D928A95E1F7C701DF9134
:1003C000CF911F910F91FF90EF90DF90CF90BF9052
:1003D0000895AF92BF92CF92DF92EF92FF920F9368
:1003E0001F93CF93DF93CDB7DEB77C018DB79EB758
:1003F000885491090FB6F8949EBF0FBE8DBFADB75C
:10040000BEB7119688E4FE013D9601900D928A9543
:10041000E1F7CE010D960E946F01AF84B8880FB648
:10042000F894DEBF0FBECDBF08E010E0CC24C3942B
:10043000D12C1A8B098BBC8AAB8ADE8ACD8A8DB708
:100440009EB7885491090FB6F8949EBF0FBE8DBF1A
:10045000ADB7BEB7119688E4FE013D9601900D92AE
:100460008A95E1F70E9443019FEF26E781E09150D2
:1004700020408040E1F700C000000C5F1F4F8DB7A7
:100480009EB7885B9F4F0FB6F894DEBF0FBECDBFFF
:100490000834110571F61A8B098B1E8A1D8A88543F
:1004A00091090FB6F8949EBF0FBE8DBFADB7BEB712
:1004B000119688E4FE013D9601900D928A95E1F730
:1004C0000E94430188E4FE013D96D70101900D9200
:1004D0008A95E1F70FB6F894DEBF0FBECDBFC70116
:1004E000DF91CF911F910F91FF90EF90DF90CF9010
:1004F000BF90AF9008950F931F93CF93DF93EC01BC
:100500008B010E940703602F8C2F0E94FC0362E086
:1005100082E00E9441030E9401042FEF81EE94E0EB
:10052000215080409040E1F700C00000DF91CF9162
:100530001F910F9108951F920F920FB60F921124E1
:100540000F900FBE0F901F9018952998662311F0F9
:100550002B9A01C02B9827E030E090E0AC01022EEE
:1005600002C0559547950A94E2F740FF02C02C9AC5
:1005700001C02C982D9A2D982150310978F7299A8D
:10058000089560E00C94A502CF93DF93219A229AFC
:10059000239A249A259A2A9A299A8FE39CE901970B
:1005A000F1F700C000002A989FEF2AE683E09150FF
:1005B00020408040E1F700C000002A9A299881E29B
:1005C0000E94C10283E10E94C10286E00E94C10232
:1005D00082EC0E94C10280E20E94C10289E00E9476
:1005E000C10280E80E94C10280E40E94C102C8EFFB
:1005F000D1E061E080E00E94A5022197D1F788E078
:100600000E94C1028CE0DF91CF910C94C10280E87E
:100610000E94C10280E40E94C10210921003109255
:10062000110388EF91E0E8E1F1E0DF019C011D9208
:1006300021503040E1F70895811102C084E201C0E9
:1006400080E20C94C102962F969596959695E82F88
:10065000F0E084E5989FE00DF11D1124E85EFE4F67
:10066000677081E090E001C0880F6A95EAF7442343
:1006700019F09081892B03C0809590818923808314
:1006800008958F929F92AF92BF92DF92EF92FF9266
:100690000F931F93CF93DF9300D000D01F92CDB75D
:1006A000DEB7F62E282F082E000C330B80326CF0AC
:1006B0002052310985E0829FB001839F700D112483
:1006C00068597F4F45E050E00EC0220F331FF901FB
:1006D000EE5EFC4F008111810115110559F445E0D2
:1006E00050E068E670E0CE0101960E94C5088E01D8
:1006F0000F5F1F4F85E0F89E5001112497E0F99E8F
:1007000040011124D12C8D2D90E08A159B0544F5D4
:10071000E12C8E2D90E08815990504F58D2D6F2D17
:100720000E947006F801E80FF11D208130E08E2D47
:100730000E94700602C0359527958A95E2F7609170
:100740001103809110036E0D20FF02C041E001C033
:1007500040E08D0D0E942303E394DBCFD394D3CFED
:100760008091100391E0980F8F2D880F880F8F0DC7
:10077000890F843518F4809310030BC01092100376
:10078000809111038F5F97E0F99E800D1124809373
:10079000110380911103803320F010921003109206
:1007A00011030F900F900F900F900F90DF91CF914A
:1007B0001F910F91FF90EF90DF90BF90AF909F90AF
:1007C0008F90089580323CF4E82FEE0FFF0BEE5E21
:1007D000FC4F7183608308951F93CF93DF93162F8F
:1007E000EC018991882321F0612F0E944103F9CF08
:1007F000DF91CF911F9108958093100360931103AF
:100800000895CF93DF9380E80E94C10280E40E94A4
:10081000C102C8E1D1E061E089910E94A50283E0B4
:10082000C031D807C1F7DF91CF9108954F925F9201
:100830006F927F928F929F92AF92BF92CF92DF92F0
:10084000EF92FF92CF93DF93CDB7DEB72E970FB61F
:10085000F894DEBF0FBECDBF8D876987F22E642F5F
:1008600070E0681B7109072E000C880B990B0E9421
:10087000B4074B015C016F2D70E02985621B710983
:10088000072E000C880B990B0E94B4076B017C01AA
:1008900024013501E89477F8DC01CB01BF77898327
:1008A0009A83AB83BC839C01AD01C301B2010E945A
:1008B000400887FF04C049805A806B807C80A30178
:1008C0009201C501B4010E94110769837A838B8369
:1008D0009C83A3019201C701B6010E9411076D8399
:1008E0007E838F839887AD856A2F70E080E090E0EB
:1008F0000E94B2076B017C01B9856B2F70E080E02C
:1009000090E00E94B2074B015C0121E030E03E879D
:100910002D87AD85BE85BD01BB0F880B990B0E944D
:10092000B4079B01AC01C301B2010E94400887FDDE
:100930002CC0C501B4010E94830769877A878B8721
:100940009C87C701B6010E948307DC01CB0141E00F
:1009500069850E94230329813A814B815C81C7010B
:10096000B6010E94A5066B017C012D813E814F815D
:100970005885C501B4010E94A5064B015C018D8517
:100980009E8501969E878D87C4CF2E960FB6F894CC
:10099000DEBF0FBECDBFDF91CF91FF90EF90DF9014
:1009A000CF90BF90AF909F908F907F906F905F900F
:1009B0004F9008950F931F93CF93DF93C82F162F57
:1009C000042FD22F262F0E9416042D2F402F612F87
:1009D000802F0E9416042D2F4C2F6D2F802F0E94E8
:1009E0001604212F4C2F6D2F8C2FDF91CF911F914B
:1009F0000F910C9416047F928F929F92AF92BF92A8
:100A0000CF92DF92EF92FF920F931F93CF93DF93DA
:100A1000D82EC62EC42FD0E0E12CF12C00E010E03F
:100A200041E0AC2CA00E6A2DBC2EBD0C8B2D0E947B
:100A3000230341E08C2E8C0C682D9D2C900E892D6B
:100A40000E94230341E0682D7D2C701A872D0E949F
:100A5000230341E06A2D8D2C8C1A882D0E942303DC
:100A600041E0AC2CA01A6A2D882D0E94230341E09E
:100A70008C2C8C1A682D872D0E94230341E0682D51
:100A8000892D0E94230341E06A2D8B2D0E942303B0
:100A90001E141F045CF00F5F1F4FC801880F991FC1
:100AA0000196E80EF91E1E141F043CF42197CE0196
:100AB000880F991F0196E81AF90AC017D1070CF0A0
:100AC000AFCFDF91CF911F910F91FF90EF90DF900B
:100AD000CF90BF90AF909F908F907F900895FC0132
:100AE0000FB6F894609152037091530380915403B0
:100AF000909155030FBE309721F0608371838283FC
:100B000093830895CF93DF93CDB7DEB7C755D1094F
:100B10000FB6F894DEBF0FBECDBF0E94C4020E9484
:100B2000070360E071E081E00E94E2035698579865
:100B3000209885E0E9E0F1E0DE01AD5ABF4F019079
:100B40000D928A95E1F7BE016D5A7F4F82E00E94B7
:100B5000E20385E0EEE0F1E0DE01A25BBF4F019031
:100B60000D928A95E1F7BE01625B7F4F83E00E94A0
:100B7000E20385E0E3E1F1E0DE01A75BBF4F019016
:100B80000D928A95E1F7BE01675B7F4F84E00E947A
:100B9000E203F89410928000109281001092850078
:100BA0001092840010928900109288008091810038
:100BB00088608093810080918100856080938100AE
:100BC00080916F00826080936F00419A78941A82BE
:100BD00019821E821D8218861F821A8619862996FE
:100BE0001FAE1EAE299700E010E04F9B2AC00032D6
:100BF000110511F00C5F1F4F1C830B838DB79EB73F
:100C0000885491090FB6F8949EBF0FBE8DBFADB743
:100C1000BEB7119688E4FE01319601900D928A9537
:100C2000E1F70E9443019FEF21EE84E091502040C4
:100C30008040E1F700C000000FB6F894DEBF0FBEA1
:100C4000CDBF4E9B2AC00115110511F004501109AA
:100C50001C830B838DB79EB7885491090FB6F89407
:100C60009EBF0FBE8DBFADB7BEB7119688E4FE0123
:100C7000319601900D928A95E1F70E9443019FEF12
:100C800021EE84E0915020408040E1F700C0000058
:100C90000FB6F894DEBF0FBECDBF189BA6CF1C8346
:100CA0000B838DB79EB7885491090FB6F8949EBFF9
:100CB0000FBE8DBFADB7BEB7119688E4FE01319669
:100CC00001900D928A95E1F7CE0101960E94E9010B
:100CD0000B811C810FB6F894DEBF0FBECDBF85CF50
:100CE000991B79E004C0991F961708F0961B881F7E
:100CF0007A95C9F78095089597FB072E16F400940E
:100D000007D077FD09D00E94900607FC05D03EF47D
:100D1000909581959F4F0895709561957F4F0895A7
:100D2000AA1BBB1B51E107C0AA1FBB1FA617B70711
:100D300010F0A61BB70B881F991F5A95A9F780952D
:100D40009095BC01CD0108955058BB27AA270E9459
:100D5000BC060C9406080E94F80738F00E94FF07B2
:100D600020F039F49F3F19F426F40C94F5070EF4A3
:100D7000E095E7FB0C94EF07E92F0E94170858F362
:100D8000BA17620773078407950720F079F4A6F570
:100D90000C9439080EF4E0950B2EBA2FA02D0B0100
:100DA000B90190010C01CA01A0011124FF27591BB0
:100DB00099F0593F50F4503E68F11A16F040A22FB6
:100DC000232F342F4427585FF3CF46953795279527
:100DD000A795F0405395C9F77EF41F16BA0B620B26
:100DE000730B840BBAF09150A1F0FF0FBB1F661F6D
:100DF000771F881FC2F70EC0BA0F621F731F841FB0
:100E000048F4879577956795B795F7959E3F08F0D5
:100E1000B0CF9395880F08F09927EE0F9795879597
:100E200008950E9425070C9406080E94FF0758F0B9
:100E30000E94F80740F029F45F3F29F00C94EF0777
:100E400051110C943A080C94F5070E94170868F3A6
:100E50009923B1F3552391F3951B550BBB27AA2773
:100E600062177307840738F09F5F5F4F220F331FAD
:100E7000441FAA1FA9F335D00E2E3AF0E0E832D075
:100E800091505040E695001CCAF72BD0FE2F29D078
:100E9000660F771F881FBB1F261737074807AB074A
:100EA000B0E809F0BB0B802DBF01FF2793585F4FBF
:100EB0003AF09E3F510578F00C94EF070C943A08F5
:100EC0005F3FE4F3983ED4F3869577956795B795A1
:100ED000F7959F5FC9F7880F911D9695879597F9AC
:100EE0000895E1E0660F771F881FBB1F6217730725
:100EF0008407BA0720F0621B730B840BBA0BEE1F3A
:100F000088F7E09508950E941F0888F09F5798F091
:100F1000B92F9927B751B0F0E1F0660F771F881FFE
:100F2000991F1AF0BA95C9F714C0B13091F00E9418
:100F30003908B1E008950C943908672F782F882775
:100F4000B85F39F0B93FCCF3869577956795B3953F
:100F5000D9F73EF490958095709561957F4F8F4FAE
:100F60009F4F0895E89409C097FB3EF490958095B3
:100F7000709561957F4F8F4F9F4F9923A9F0F92F5F
:100F800096E9BB279395F695879577956795B795DD
:100F9000F111F8CFFAF4BB0F11F460FF1BC06F5FC3
:100FA0007F4F8F4F9F4F16C0882311F096E911C0D5
:100FB000772321F09EE8872F762F05C0662371F0F6
:100FC00096E8862F70E060E02AF09A95660F771F0A
:100FD000881FDAF7880F9695879597F9089597F9FE
:100FE0009F6780E870E060E008959FEF80EC0895CF
:100FF00000240A94161617061806090608950024F8
:101000000A9412161306140605060895092E039471
:10101000000C11F4882352F0BB0F40F4BF2B11F4E5
:1010200060FF04C06F5F7F4F8F4F9F4F089557FD44
:101030009058440F551F59F05F3F71F04795880F46
:1010400097FB991F61F09F3F79F0879508951216DD
:1010500013061406551FF2CF4695F1DF08C0161689
:1010600017061806991FF1CF86957105610508943A
:101070000895E894BB2766277727CB0197F9089551
:101080000E94450808F48FEF0895990F0008550F46
:10109000AA0BE0E8FEEF16161706E807F907C0F0FE
:1010A00012161306E407F50798F0621B730B840B06
:1010B000950B39F40A2661F0232B242B252B21F4E0
:1010C00008950A2609F4A140A6958FEF811D811D80
:1010D00008958F929F92AF92BF92CF92DF92EF923C
:1010E000FF92CF93DF93EC01688179818A819B81A4
:1010F000611571058105910521F464E279ED8BE5B7
:1011000097E02DE133EF41E050E00E94CE08490125
:101110005A019B01AC01A7EAB1E40E94ED086B0102
:101120007C01ACEEB4EFA50194010E94FB08DC0148
:10113000CB018C0D9D1DAE1DBF1DB7FF03C00197D8
:10114000A109B04888839983AA83BB839F77DF91E5
:10115000CF91FF90EF90DF90CF90BF90AF909F9096
:101160008F9008950E946908089585E091E00E949B
:1011700069080895A0E0B0E080930501909306010E
:10118000A0930701B09308010895FB01DC0102C0A0
:1011900005900D9241505040D8F70895052E97FBC9
:1011A0001EF400940E94E50857FD07D00E94000934
:1011B00007FC03D04EF40C94E5085095409530950B
:1011C00021953F4F4F4F5F4F0895909580957095B3
:1011D00061957F4F8F4F9F4F08950E942209A59FD1
:1011E000900DB49F900DA49F800D911D1124089522
:1011F000B7FF0C94ED080E94ED08821B930B089535
:10120000A1E21A2EAA1BBB1BFD010DC0AA1FBB1F0A
:10121000EE1FFF1FA217B307E407F50720F0A21B7C
:10122000B30BE40BF50B661F771F881F991F1A94E9
:1012300069F760957095809590959B01AC01BD0113
:10124000CF010895A29FB001B39FC001A39F700D6D
:10125000811D1124911DB29F700D811D1124911DBE
:061260000895F894FFCF91
:101266001024E02410010000005D77140808080827
:0812760008080811150A0E1109
:00000001FF
